S01700006275696C642F697269732F6D61696E2E7372656343
S11300000C947B010C949A010C949A010C949A011F
S11300100C949A010C949A010C949A010C949A01F0
S11300200C949A010C949A010C949A010C949A01E0
S11300300C949A010C94F7090C949A010C943205CF
S11300400C94660F0C942E0F0C94E9050C94F40593
S11300500C94FF050C949A010C949A010C949A0147
S11300600C9446050C94EA070C949A010C946D08C0
S11300700C949A010C949A010C949A010C94C4095E
S11300800C94A3090C94AE090C94B9090C94D709E7
S11300900C9486090C949A010C9498090C949A0176
S11300A00C949A010C949A010C949A010C949A0160
S11300B00C949A010C949A010C949A010C949A0150
S11300C00C949A010C949A010C949A01C60FA410F2
S11300D08E15AE15BE1536169416F01625170B1888
S11300E06E1782170F18F0183719391944195C194B
S11300F000002110422063308440A550C660E770A0
S1130100088129914AA16BB18CC1ADD1CEE1EFF147
S11301103112100273325222B5529442F772D662EF
S1130120399318837BB35AA3BDD39CC3FFF3DEE397
S11301306224433420040114E664C774A44485543F
S11301406AA54BB528850995EEE5CFF5ACC58DD5E7
S11301505336722611163006D776F6669556B4468F
S11301605BB77AA719973887DFF7FEE79DD7BCC737
S1130170C448E5588668A7784008611802282338DF
S1130180CCC9EDD98EE9AFF9488969990AA92BB987
S1130190F55AD44AB77A966A711A500A333A122A2F
S11301A0FDDBDCCBBFFB9EEB799B588B3BBB1AABD7
S11301B0A66C877CE44CC55C222C033C600C411C7F
S11301C0AEED8FFDECCDCDDD2AAD0BBD688D499D27
S11301D0977EB66ED55EF44E133E322E511E700ECF
S11301E09FFFBEEFDDDFFCCF1BBF3AAF599F788F77
S11301F08891A981CAB1EBA10CD12DC14EF16FE157
S11302008010A100C230E32004502540467067608E
S1130210B9839893FBA3DAB33DC31CD37FE35EF3A6
S1130220B1029012F322D2323542145277625672DE
S1130230EAB5CBA5A89589856EF54FE52CD50DC5F6
S1130240E234C324A014810466744764245405442E
S1130250DBA7FAB79987B8975FE77EF71DC73CD746
S1130260D326F2369106B01657667676154634567E
S11302704CD96DC90EF92FE9C899E9898AB9ABA996
S11302804458654806782768C018E1088238A328CE
S11302907DCB5CDB3FEB1EFBF98BD89BBBAB9ABBE6
S11302A0754A545A376A167AF10AD01AB32A923A1E
S11302B02EFD0FED6CDD4DCDAABD8BADE89DC98D36
S11302C0267C076C645C454CA23C832CE01CC10C6E
S11302D01FEF3EFF5DCF7CDF9BAFBABFD98FF89F86
S11302E0176E367E554E745E932EB23ED10EF01EBE
S11302F000020E060C0411241FBECFEFD1E2DEBFB4
S1130300CDBF12E0A0E0B2E0E4ECFFE300E00BBFFD
S113031002C007900D92A831B107D9F714E1A8E102
S1130320B2E001C01D92A03CB107E1F70E94C319DD
S11303300C94E11F0C9400008FB7F894992708954A
S11303408FBF08958FB7F894992722B132E02327FD
S113035022B98FBF0895282F9FB7F894E82FFF275D
S1130360EA5AFD4F80818F3F81F4E091AB14E2178C
S113037071F40BC02093021304C0FF27EA5AFD4F07
S113038020832093AB1420E007C025E005C08091B2
S113039002138F3F91F7EECF892F99278FBF822FBA
S11303A0992708957FB7F8946091B2002091500284
S11303B0309151024091520250915302B99B11C0A5
S11303C08091B3009091B200280F311D411D511D41
S11303D02F5F3F4F4F4F5F4F290F311D411D511D5F
S11303E004C0260F311D411D511D872F99278FBF32
S11303F0CA01B90108958091180D8A3021F48091C1
S11304007702843021F081E080931A0208958EE00F
S11304100E94AB0110921A0208952FB7F894332763
S11304208093C600E0ECF0E08081806480832FBF7D
S11304300895FC016115710519F481E090E00895B7
S11304408091BA0A9091BB0A892B19F085E090E05B
S113045008957093EF126093EE12F093BB0AE09349
S1130460BA0A10929B0A10929A0A81E080939C0A1D
S11304708091C00080648093C0008091C10080643A
S11304808093C100808121E030E030939B0A209367
S11304909A0A0E940D0280E090E008958FB7F894C4
S11304A0992720912B022E7F20932B022EE7209355
S11304B068028FBF61E070E088E692E00E94190252
S11304C0992708951F931FB7F8948091A514882342
S11304D041F48CE00E94AB01882319F481E08093FD
S11304E0A514812F99278FBF1F910895882319F090
S11304F08CB5806402C08CB58F7B8CBD08950F933E
S11305001F93982F1FB7F89480911902823099F5A0
S113051080910A02891779F58091080220E030E081
S11305208F3F11F421E030E0232BF1F49FEF9093FF
S11305300A028F3F19F42FEF30E00DC0282F332724
S1130540F901EA54F54F8081809308028F3F11F43A
S11305509093090290832093B90A81E08093190251
S11305608BE00E94AB0105C08FEF80930A021092CA
S1130570190201E001C000E0812F99278FBF1FB746
S1130580F89480911902882311F40E947602812F35
S113059099278FBF90E0013009F491E081E098271A
S11305A0892F99271F910F910895EF92FF920F932E
S11305B01F93E091010CE1FF2BC02091F90B3091C6
S11305C0FA0B4091FB0B5091FC0BE090FD0BF0906B
S11305D0FE0B0091FF0B1091000C621B730B840B3C
S11305E0950B6E157F058007910790F0E0FF04C01E
S11305F0ED7FE093010C0CC02E0D3F1D401F511FD9
S11306002093F90B3093FA0B4093FB0B5093FC0BA4
S113061088E00E94AB011F910F91FF90EF90089525
S1130620DF92EF92FF920F931F938FB7F894282FC6
S11306303327D22E9091B3008091B20047B398171C
S113064011F041FF02C02FBF71C08091A10A88231D
S1130650E1F10E94D201E0904402F0904502009141
S113066046021091470220910C1330910D134091D2
S11306700E1350910F136E197F09800B910B6217A3
S113068073078407950720F01092A10A71E01EC039
S11306902E0D3F1D401F511F809150029091510219
S11306A0A0915202B0915302281B390B4A0B5B0BE9
S11306B0273E31054105510540F4822F223010F0C8
S11306C070E005C070E082E002C070E086EE682F42
S11306D061508091B60083FDFCCF8091B200681711
S11306E009F46F5F209150023091510240915202FF
S11306F050915302DA01C9010196A11DB11D860F63
S1130700911DA11DB11D82179307A407B50710F40D
S1130710622F60958091B60083FDFCCF6093B30097
S1130720DFBE772319F087E00E94AB011F910F9180
S1130730FF90EF90DF900895AFB7F894BB27E1E006
S1130740E093A10A609344027093450280934602A9
S11307509093470220930C1330930D1340930E1380
S113076050930F13AFBF0E9410030895AC01EFB76D
S1130770F8942091840030918500C901841B950B65
S113078003968617970720F0B9016D5F7F4F02C06B
S1130790640F751F6115710511F461E070E061501B
S11307A07040709389006093880082E086BB8091DA
S11307B06F00826080936F008E2F99278FBF0895FA
S11307C0EF92FF920F931F937C018FB7F8949927B0
S11307D00091210D1091220D0F5E1E4F1093220DDA
S11307E00093210D015111408FBF86E00E94AB019F
S11307F0C801B7010E94361E8A5D9E4F1F910F915A
S1130800FF90EF9008951F93982F1FB7F89480914D
S11308101802823099F580910702891779F5809141
S1130820050220E030E08F3F11F421E030E0232B7B
S1130830F1F49FEF909307028F3F19F42FEF30E00C
S11308400DC0282F3327F901E059FD4F8081809393
S113085005028F3F11F490930602908320936B025C
S113086081E08093180282E00E94AB0105C08FEF03
S1130870809307021092180221E001C020E0812F2A
S113088099278FBF90E0213009F491E081E0982707
S1130890892F99271F9108958FB7F894992722B12A
S11308A034E0232722B98FBF0895FC018FE38287A8
S11308B080912E028F5F80932E0283838091740235
S11308C0882311F085E00DC0F0931B0DE0931A0D01
S11308D081E0809374021092140D84E00E94AB01B5
S11308E080E099270895882319F08CB5806802C0A8
S11308F08CB58F778CBD08950F931F9380E00E9471
S113090076020FB7F8941127229A2398219A209AF5
S11309108CB580618CBD80E00E9473048CB5877FA8
S11309208CBD8CB58B7F8CBD81E00E9476028DB529
S113093081608DBD8CB58C7F8CBD0FBF1F910F91D5
S11309400895FB01EE57FF4F21E030E002C0220F73
S1130950331F8A95E2F78081822B808308958FB7B5
S1130960F8942091EF0B3091F00B4091F10B5091E2
S1130970F20BE0918400F0918500B09B08C02F5FDA
S11309803F4F4F4F5F4FE0918400F09185009927CE
S11309908FBFC901772766279F0144275527622BFC
S11309A0732B842B952B0895FC0182819927982F12
S11309B0882721813327822B932B25E096958795D1
S11309C02A95E1F7817090700895CF93DF93EC013D
S11309D00E94D404882339F18A8129819927982F88
S11309E088273327822B932B87749C7C81549848C7
S11309F0D1F48F814E812FB7F8943327609102028E
S1130A00709103022FBF20E09927982F882755273C
S1130A10842B952B8617970709F021E081E028277E
S1130A20822F992702C080E090E0DF91CF91089552
S1130A30FB01EE57FF4F21E030E002C0220F331FCD
S1130A408A95E2F78081822399270895FC018181A8
S1130A50992780739070816498688183892F99277E
S1130A60828308951F920F920FB60F9211248F93D1
S1130A708091B0008093B0008091B60081FDFCCFDE
S1130A808F910F900FBE0F901F9018951F920F9289
S1130A900FB60F9211240F931F932F933F934F93ED
S1130AA05F936F937F938F939F93AF93BF93CF93F2
S1130AB0DF93EF93FF932EB5E0910C0DF0910D0DA4
S1130AC0309739F08091EB0B9091EC0BE80FF91F04
S1130AD020838091EB0B9091EC0B01969093EC0B9F
S1130AE08093EB0B80E00E947304C091EB0BD091D8
S1130AF0EC0B2091310230913202C217D30708F077
S1130B0042C00091A0141091A11440910C0D509179
S1130B100D0DCE010A962817390708F4C901DA0128
S1130B20AC0FBD1FF801EC0FFD1F9C01215030409C
S1130B3015C00115110531F080818EBD0DB407FE7D
S1130B40FDCF04C01EBC0DB407FEFDCF8EB541150C
S1130B50510509F08C93219611963196C217D3074B
S1130B6040F381E00E9473040115110531F00C0F6C
S1130B701D1FF80180818EBD01C01EBCD093EC0BFB
S1130B80C093EB0B11C010920D0D10920C0D10922E
S1130B90A1141092A01410923202109231021092F9
S1130BA0EC0B1092EB0B8EB5FF91EF91DF91CF918F
S1130BB0BF91AF919F918F917F916F915F914F9171
S1130BC03F912F911F910F910F900FBE0F901F9087
S1130BD0189578941F920F920FB60F9211240F90CC
S1130BE00FBE0F901F90189578941F920F920FB616
S1130BF00F9211240F900FBE0F901F9018957894A8
S1130C001F920F920FB60F9211242F933F938F933D
S1130C109F93AF93BF932FB7F89433278091EF0B33
S1130C209091F00BA091F10BB091F20B0196A11DE4
S1130C30B11D8093EF0B9093F00BA093F10BB09345
S1130C40F20B2FBFBF91AF919F918F913F912F9145
S1130C500F900FBE0F901F901895E0EFF0E06927FA
S1130C60660FF11DE60FF11DC895982F802D319662
S1130C70C89590250895982F80912602882389F598
S1130C80992379F531E03093260280910B02809309
S1130C90270220911B02822F817080934C02809145
S1130CA0100290911102909329028093280280915E
S1130CB01C0280932A0232273170267EE32FFF27FD
S1130CC0EE0FFF1FE45FFD4F80819181909311022D
S1130CD080931002232B20931B0281E10E94AB011D
S1130CE0089580911B0280FF02C08B7F01C08D7F1D
S1130CF080931B0208950F931F93082F162F809142
S1130D0077028130D9F0813038F0823009F44AC05A
S1130D10833009F028C159C0002309F458C1109246
S1130D20E7121092E6121092260D1092FA12109207
S1130D309D0A1092F50B1092F40B39C1002309F0AF
S1130D4046C18091F40B9091F50B0E942D0690936F
S1130D50F50B8093F40B82E0809377021093FA12E0
S1130D60143409F000C125C18695869503C080918D
S1130D701B028695817009F0F6C080911B029923AD
S1130D8011F0846001C0826080931B0280911B0279
S1130D90877E886080931B0210921C028FEF8093E1
S1130DA00B0215C1002309F0DEC060939D0A8091F7
S1130DB0F40B9091F50B0E942D069093F50B809304
S1130DC0F40B83E08093770202C18091260D8F3F5C
S1130DD009F4C9C0002309F461C0823008F4C3C017
S1130DE0E091E612EE2309F4EBC04E2F4150E42FBC
S1130DF0FF27EA51FD4E82819927382F2227442369
S1130E0011F4E2E002C0E42FE150FF27EA51FD4E65
S1130E1082819927282B392B8091F40B9091F50B23
S1130E202817390709F09FC080E00E943B063091E3
S1130E309D0A8091E30B2091E40B982F9F5F9630DD
S1130E4008F090E0921771F0E82FFF27ED51F44F6E
S1130E5032838F5F8093E30B863010F01092E30BA4
S1130E600E9462021092E7121092E61294E09093AC
S1130E7077021092260D1092FA1210929D0A109287
S1130E80F50B1092F40B80912B028D7F80932B0233
S1130E9080911A02882309F49AC084C0823008F42D
S1130EA04EC0E091E712FF27EA51FD4E8281482FA0
S1130EB05527342F20911B02822F8695869586957F
S1130EC0837099278130910519F00297F9F40EC0C7
S1130ED0277E206120931B02442311F485E001C086
S1130EE080E080931C0230930B0210C080911C029E
S1130EF0853860F4E0911002F0911102E80FF11DC1
S1130F00408380911C028F5F80931C028091E712C2
S1130F10E82FFF27EA51FD4E62818F5F8093E7122D
S1130F20833010F01092E71277278091F40B9091A0
S1130F30F50B0E942D069093F50B8093F40B809192
S1130F40E612E82FFF27EA51FD4E12838F5F80934C
S1130F50E612833010F01092E6128091260D8F5F16
S1130F608093260D34C01092E7121092E61214E01A
S1130F70109377021092260D1092FA1210929D0A85
S1130F801092F50B1092F40B80912B028D7F8093BD
S1130F902B0281E00E943B0680911A02882329F0EB
S1130FA0109377020E94FB0112C0002381F081E0BC
S1130FB009CF80911B02982F917080FDD5CED7CE9A
S1130FC08091EA129927382F222742E01CCF1F91E3
S1130FD00F9108951F920F920FB60F9211242F9321
S1130FE03F934F935F936F937F938F939F93AF93AD
S1130FF0BF93EF93FF938091C00087FF42C060913D
S1131000C600E091F60BF091F70B309719F180913F
S1131010A3149091A414E80FF91F60830196909390
S1131020A4148093A3142091B4143091B51482179E
S1131030930738F11092F70B1092F60B8091150D6F
S11310408330F9F08091C1008F778093C1001092B2
S1131050150D17C06E3719F460E081E010C080915F
S11310602B026D3721F4826080932B020AC081FF2A
S113107005C08D7F80932B0280E2682780E00E9468
S11310807B06FF91EF91BF91AF919F918F917F91DB
S11310906F915F914F913F912F910F900FBE0F90E1
S11310A01F901895982F8D57823068F480912B02E9
S11310B0816080932B0280E289278093230D8DE742
S11310C08093680202C09093680261E070E088E651
S11310D092E00E9419029927089578941F920F9222
S11310E00FB60F921124FF920F931F932F933F93E8
S11310F04F935F936F937F938F939F93AF93BF931C
S1131100CF93DF93EF93FF9320919A0A30919B0A38
S11311108091EE129091EF122817390780F4E09134
S1131120BA0AF091BB0AE20FF31F80812F5F3F4F91
S113113030939B0A20939A0A0E940D02D1C0109208
S1131140BB0A1092BA0A10929C0A8091C1008F7B4C
S11311508093C100FFB6F89480912B0280FF0EC0EB
S11311608E7F80932B028091230D8093680261E02F
S113117070E088E692E00E941902AFC08091180DD9
S1131180843009F48CC0853040F4823021F18330FE
S1131190B8F5813009F09CC00DC0863009F48DC0CB
S11311A0863008F483C0873009F48EC0883009F093
S11311B08FC091C08091B80A0E945208082F83E022
S11311C08093180D6091B80A8091B2149091B31471
S11311D00E942D0610C0809106130E945208082F09
S11311E083E08093180D609106138091B21490915E
S11311F0B3140E942D069093B3148093B21466C066
S1131200E091F80BFF27EE0FFF1FE254F54F8081AA
S11312100E945208082F1091F80BC12FDD27FE0100
S1131220EE0FFF1FE254F54F60818091B21490914C
S1131230B3140E942D069093B3148093B21420919A
S1131240B10A2F5F2093B10A113039F5809122023F
S1131250E0911D02F0911E02E80FF11DE0818F5F05
S11312608093220290912102981730F482E08093B7
S1131270BF0A40E050E002C04E2F5527DE01AA0FFE
S1131280BB1FFD01E354F54F8081823031F02F3FC5
S113129021F0A254B54F4C9319C084E012C0809140
S11312A0B2140E945208082F85E00BC08091B31439
S11312B00E945208082F86E004C00E944E02082FA4
S11312C087E08093180D02C088E003C0002329F052
S11312D089E08093180D0E9462028F2D99278FBF99
S11312E0FF91EF91DF91CF91BF91AF919F918F913A
S11312F07F916F915F914F913F912F911F910F912A
S1131300FF900F900FBE0F901F9018951F920F9291
S11313100FB60F9211248F938091C80087FF02C0EB
S11313208091CE008F910F900FBE0F901F90189553
S113133078941F920F920FB60F9211240F900FBE44
S11313400F901F90189578941F920F920FB60F92DA
S113135011240F900FBE0F901F90189578941F9230
S11313600F920FB60F9211240F900FBE0F901F9083
S1131370189578941F920F920FB60F9211240F9024
S11313800FBE0F901F90189578941F920F920FB66E
S11313900F9211248F939F938091960090919700C0
S11313A09F918F910F900FBE0F901F901895789476
S11313B01F920F920FB60F9211242F933F938F9386
S11313C09F932FB7F89433278091AD0A9091AE0A7A
S11313D001969093AE0A8093AD0A2FBF9F918F918F
S11313E03F912F910F900FBE0F901F9018951F9251
S11313F00F920FB60F9211242F933F934F935F9345
S11314006F937F938F939F93AF93BF93EF93FF93C8
S11314108091B0008093B0008091B60081FDFCCF34
S11314208091B30099270196AA27BB2720915002E7
S1131430309151024091520250915302280F391FAA
S11314404A1F5B1F20935002309351024093520273
S11314505093530278940E941003FF91EF91BF912F
S1131460AF919F918F917F916F915F914F913F9138
S11314702F910F900FBE0F901F9018950F931F93ED
S1131480CF93DF93182F0FB7F89480911902882314
S113149011F40E947C04802F99278FBF8FB7F89492
S11314A0C82FDD272C2F80911902882361F481E055
S11314B0809319021093B90A8BE00E94AB01CFBF4D
S11314C080E090E021C0E12FFF27EA54F54F8081AE
S11314D08F3F89F4E0910902E11789F40CC010935D
S11314E0080204C0FF27EA54F54F10831093090241
S11314F080E090E002C085E090E02FBF05C08091BD
S113150008028F3F79F7EBCFDF91CF911F910F91B5
S113151008958FB7F894282F3327922F80910A02C9
S1131520882331F480911902823011F42FBF13C043
S11315309FBF8FB7F894282F3327809119028823EF
S113154069F482E08093190210920A022FBF0E946C
S11315507C04209A289A81E090E008952FBF80E0CF
S11315600E943E0A80E090E00895809174028230E7
S113157031F481E08093740284E00E94AB01089509
S113158080931013882311F484E001C081E08093D8
S1131590740284E00E94AB0108954F925F926F92AF
S11315A07F928F929F92AF92BF92CF92DF92EF92EF
S11315B0FF920F931F93CF93DF93EC0180912F023F
S11315C0882309F08DC18091A214853009F088C167
S11315D00E94890A882309F483C18091EB1288232D
S11315E009F07EC1BE0182E00E941805882311F42F
S11315F09FE006C0CD57DF4F9981C358D0409F70FC
S11316008091470B981781F09093470B289885ECAD
S11316108EBD0DB407FEFDCF8EB590689EBD0DB492
S113162007FEFDCF8EB5289A4E010894811C911CAB
S1131630F4018181298140E09927982F8827332755
S1131640822B932B87749C7C8154984809F441E045
S1131650442301F1289886E88EBD0DB407FEFDCF22
S11316608EB51EBC0DB407FEFDCF8EB5289A992702
S11316708F7190702091AC0A40917102240F312D2A
S1131680311D43E0359527954A95E1F72817390729
S11316900CF426C1289882EC8EBD0DB407FEFDCF54
S11316A08EB589E08EBD0DB407FEFDCF8EB5289AA8
S11316B00E94AF047B018C01BE0184E00E941805E6
S11316C0882319F4E0E0F0E005C088818550FE012C
S11316D0E80FF11D289881E88EBD0DB407FEFDCFFB
S11316E08EB51EBC0DB407FEFDCF8EB5289A8F7142
S11316F0893079F0289882EC8EBD0DB407FEFDCFB9
S11317008EB586E08EBD0DB407FEFDCF8EB5289A4A
S1131710E7C08FB7F89499272F9A209184003091CD
S113172085008FBF2F98289880E68EBD98810DB4D0
S113173007FEFDCF8EB59EBD792F7250773010F421
S1131740672F01C067E0D401962F4D910DB407FEB9
S1131750FDCF8EB54EBD9150C1F761502401460EA8
S1131760511C6F5F0894411C511C2E193F092E55C2
S11317703F4F3901882477FC8094982C6E0C7F1C91
S1131780801E911E309719F4972F961B45C0208117
S1131790E1808281A3809927AA27BB27BA2FA92F8A
S11317A0982F8827332744275527522F4427332738
S11317B02227FF24002711278701FF24EE242E2946
S11317C03F29402B512BBB24CC24DD242A293B293F
S11317D04C295D29822B932BA42BB52B86199709B1
S11317E0A809B9098383292F3A2F4B2F5527228320
S11317F09D014427552721838B2F9927AA27BB278F
S11318008083C2CFD2012C910DB407FEFDCF089482
S1131810411C511C8EB52EBD9150A0F70DB407FE8E
S1131820FDCF8EB5289A289882EC8EBD0DB407FEA4
S1131830FDCF8EB586E08EBD0DB407FEFDCF8EB50F
S1131840289A3097D1F12081E1808281A380992761
S1131850AA27BB27BA2FA92F982F882733274427D5
S11318605527522F442733272227FF2400271127E7
S11318708701FF24EE242E293F29402B512BBB2422
S1131880CC24DD242A293B294C295D29822B932B46
S1131890A42BB52B860D971DA81DB91D8383292F55
S11318A03A2F4B2F552722839D0144275527218307
S11318B08B2F9927AA27BB278083BE0181E00E9432
S11318C0A104C258DF4F688279828A829B8286E0B3
S11318D08093A21484E080932F0280E090E002C001
S11318E085E090E0DF91CF911F910F91FF90EF90F1
S11318F0DF90CF90BF90AF909F908F907F906F902C
S11319005F904F9008952F923F924F925F926F9203
S11319107F928F929F92AF92BF92CF92DF92EF927B
S1131920FF920F931F93CF93DF93CDB7DEB7279723
S11319300FB6F894DEBF0FBECDBF9D838C838B01A1
S11319404E83FC01878126819927582F442733270A
S1131950422B532B8FB7F894992720910202309190
S113196003028FBF4217530721F04F5F5F4F09F007
S11319705AC2EC81FD81F3840E94A201FBE7FF16A9
S1131980B1F5D8018C91813009F04DC2F801818103
S1131990893109F048C28281843209F044C28381CA
S11319A08E3D09F040C28485893E09F03CC285859C
S11319B0873309F038C286858C3909F034C28785AB
S11319C0833009F030C28581873561F488E190E085
S11319D028E00FB6F894A895809360000FBE20937A
S11319E06000FFCFF80187818093A40A1CC2F5E14F
S11319F0FF1609F016C2EC81FD814085FFB7FB8319
S1131A00F89480913602282F3327FAE1CF2ED12C77
S1131A102C9DF0012D9DF00D3C9DF00D1124E658F8
S1131A20FD4F2E8120834183EAE1BE2E8B9DC001B0
S1131A301124FC01E458FD4FD8012D913C913183D0
S1131A402083BE816B2E7724A301435050400D5F49
S1131A501F4FB80182589D4F0E94D11F8091A40A44
S1131A60823109F09EC080914202882309F0D2C1DC
S1131A70E0913002FF27EE0FFF1FE153F44F008186
S1131A8011816CE0E62EF12CE00EF11E83E2F801E8
S1131A908083E0913002FF27EE0FFF1FE153F44FE4
S1131AA00190F081E02D82E483878091FF12909170
S1131AB000130196909300138093FF128983892F5A
S1131AC099278A8388E2F80184878A8185878981B6
S1131AD0868760913602862F99278C9DF0018D9D13
S1131AE0F00D9C9DF00D1124E658FD4F40815527C3
S1131AF04F5F5F4F6B9DB001112466587D4FC80145
S1131B000F960E94D11F8091360299278C9DF00177
S1131B108D9DF00D9C9DF00D1124E658FD4F8081A4
S1131B2099278231910564F442E150E0481B590B36
S1131B30E80EF91E60E070E0C70104960E94DA1F07
S1131B4083E6F80181A3809130028F5F8093300295
S1131B508A3010F010923002909130028091BB14C0
S1131B60981719F481E0809342028091350288230A
S1131B7029F40E94AB0181E0809335028091360202
S1131B809927019660E570E00E944A1E8093360210
S1131B902091A00A281709F03FC181E08093190D14
S1131BA03BC18C3209F036C18091460B882309F081
S1131BB031C181E08093460B40912C0250912D025B
S1131BC05093170D4093160D2091B40A3091B50A25
S1131BD03093081320930713CA01461557050CF4D4
S1131BE0C30190932D0280932C02C90162167306DF
S1131BF00CF4C3019093B50A8093B40A8091410216
S1131C00FE818F0F809341029927241B350B2259A3
S1131C103F4F281739070CF0E9C0142FE091300228
S1131C20FF27EE0FFF1FE153F44FA081B181809194
S1131C30000290910102FD018087892F99278187F5
S1131C40E0913002FF27EE0FFF1FE153F44F0190A4
S1131C50F081E02D8BE2838788E2FD018487809107
S1131C60FF12909100130196909300138093FF123A
S1131C708983892F99278A838587898186874787DE
S1131C8070E1E72EF12CEA0EFB1EE0913002FF27F3
S1131C90EE0FFF1FE153F44F0190F081E02D8FE729
S1131CA08083A090160D44E053C0B090A00A4AC0AF
S1131CB02B2C33248AE190E0289E6001299ED00CCD
S1131CC0389ED00C11248AE792E0C80ED91ED601A2
S1131CD08C918A1581F5012F0A19412E55248A2CDD
S1131CE09924410F4F830023C9F01127A80160E014
S1131CF070E0C7010E94DA1F6AE1B69EB0011124A8
S1131D0065587D4FA401C701800F911F0E94D11F08
S1131D10E40CF51C4F81F60110810DC06AE1B69EFA
S1131D20B001112465587D4FA401C7010E94D11F41
S1131D30E40CF51C4F81C101019660E570E00E943E
S1131D404A1EB82E80913602B81609F0B1CFAA9473
S1131D502A2D3327809107139091081328173907E8
S1131D600CF0A3CF042F1127013711054CF441E7E0
S1131D7050E0401B510B60E070E0C7010E94DA1F85
S1131D80E01AF10A81E790E0E80EF91E83E6D70134
S1131D908C93809136028093A00A1092190DBE8113
S1131DA0BF5FB093410270922D0260922C02709238
S1131DB0B50A6092B40A809130028F5F809330023A
S1131DC08A3010F010923002909130028091BB144E
S1131DD0981719F481E08093420280913502882398
S1131DE029F40E94AB0181E0809335028091360290
S1131DF09927019660E570E00E944A1E809336029E
S1131E002091A00A281719F481E08093190D1092EB
S1131E10460B02C00E944C04EB818E2F99278FBF82
S1131E2002C00E944C048C819D8127960FB6F894C1
S1131E30DEBF0FBECDBFDF91CF911F910F91FF90F9
S1131E40EF90DF90CF90BF90AF909F908F907F9056
S1131E506F905F904F903F902F90089578941F92C9
S1131E600F920FB60F9211242F933F934F935F93CA
S1131E706F937F938F939F93AF93BF93EF93FF934E
S1131E8080916F008D7F80936F0078949FB7F89452
S1131E908091100D813019F482E08093100D892F08
S1131EA099278FBF81E00E94AB01FF91EF91BF9111
S1131EB0AF919F918F917F916F915F914F913F91DE
S1131EC02F910F900FBE0F901F90189578941F922A
S1131ED00F920FB60F9211242F933F934F935F935A
S1131EE06F937F938F939F93AF93BF93EF93FF93DE
S1131EF0E6E8F0E080819181208131818FB7F89408
S1131F0099273093B00A2093AF0A21E02093EB1273
S1131F108FBF81E00E94AB01FF91EF91BF91AF9120
S1131F209F918F917F916F915F914F913F912F91ED
S1131F300F900FBE0F901F9018952F923F924F92C3
S1131F405F926F927F928F929F92AF92BF92CF9245
S1131F50DF92EF92FF920F931F93CF93DF93CDB74E
S1131F60DEB729970FB6F894DEBF0FBECDBFE82FBA
S1131F70FF27E231F10510F00C948D19EA59FF4F57
S1131F80EE0FFF1F0590F491E02D09948FB7F8949C
S1131F90282F3327422F909130028091BB14981739
S1131FA039F480914202882319F41092350255C6FF
S1131FB04FBFE091BB14FF27EE0FFF1FE153F44F17
S1131FC0A080B180F501D1907F01F3EFDF0EF50120
S1131FD0018580851127102F00279927082B192B9D
S1131FE0C384C5010E94260522E830E0A20EB31E78
S1131FF0F50110822EE73FEFA20EB31EF501008714
S1132000012F1127018788E3848315820091000240
S113201010910102F2E7FD1508F49CC5F7018181D6
S1132020F501218140E09927982F88273327822BB7
S1132030932B87749C7C8154984809F441E0442391
S113204019F4C5010E942605A80141505040569537
S11320504795569547952DE0D20EF501D0822FB7BE
S1132060F894332780910202909103022FBF808756
S1132070892F992781872FB7F894332780910402F9
S11320802FBF992784831582C3864683452F5527FE
S113209047838FB7F894282F332780911802882319
S11320A071F482E080931802109207022FBFC501D9
S11320B00E9455049927182F882399F00FC02FBF29
S11320C0B0926D02A0926C028FB7F894082F11277A
S11320D0202F80911802882399F406C080E00E9482
S11320E00304812F992725C081E080931802109260
S11320F06B0282E00E94AB010FBF80E090E019C048
S1132100809170028F3F91F4E0910602EE2371F00A
S11321100C947E191092050204C0FF27E059FD4F6C
S113212010821092060280E090E002C085E090E008
S11321302FBF892B09F00EC58FB7F894992722B1C8
S113214031E0232722B9DDC68091EB12882309F4FC
S113215011C10E94890A882309F40CC18FB7F8942D
S113216099278090AF0A9090B00A8FBF1092EB121B
S113217028988FE88EBD0DB407FEFDCF8EB51EBC2A
S11321800DB407FEFDCF8EB5289A982F80912F02AB
S1132190833011F0873031F485E08093A21488E015
S11321A080932F02A92EBB24A2FE70C080912F021F
S11321B0863019F410922F0203C0882309F066C0F8
S11321C0943009F04EC0289886E88EBD0DB407FE01
S11321D0FDCF8EB51EBC0DB407FEFDCFFEB4289A0C
S11321E0FFE1FF2280917102982F969596952F2DED
S11321F0291B820F809371020091480210914902B9
S1132200F801EE57FF4F80818B7F8083B80183E014
S11322100E94A1040D571F4FF801F1820E94AF04E0
S11322206B017C010091480210914902B80181E0E0
S11322300E94A10402581F4F8C189D0829EF3FEFFC
S1132240820E931EC401AA2797FDA095BA2F8C0D68
S11322509D1DAE1DBF1DF80180839183A283B383AE
S113226012C0E0914802F0914902EE57FF4F80817D
S1132270877F8083E0914802F0914902EE57FF4F37
S113228080818D7F808385E080932F02A3FE72C0BE
S113229080912F02843009F050C085E08093A2140D
S11322A010922F0280914F02833019F410924F0242
S11322B061C00091AC141091AD14C8010E94D40403
S11322C0882399F1F801828121819927982F882701
S11322D03327822B932B87749C7C8154984829F54F
S11322E0F801878126819927982F88273327822B05
S11322F0932B8F5F9F4FC9F090E08091100D88233E
S113230009F491E0992389F012E01093BC0A81E06A
S11323108093100D809184009091850069E973E0A9
S11323200E94B60310934F0225C010924F021092E0
S1132330750280E00E94C00A1DC08530D9F4209146
S1132340AC0A289886E88EBD0DB407FEFDCF8EB585
S11323501EBC0DB407FEFDCF8EB5289A8F71922F47
S113236096959695891B280F2093AC0A89E0809353
S11323702F0208C090912F02992309F4FEC29930CC
S113238009F02BC2289880E28EBD0DB407FEFDCF64
S11323908EB51EBC0DB407FEFDCF8EB5482F552754
S11323A0433010F40C948619842F992780389105B2
S11323B014F00C9486191EBCE0914802F091490275
S11323C04083142F1250173010F4912F01C097E05E
S11323D0BF016F5F7F4F292FFB0140E050E00DB438
S11323E007FEFDCF8EB51EBC808381914827042E45
S11323F04295407F4025052E542F42954F70042668
S1132400469554274527440F440F440F4025215037
S113241031F79150DB01A90FB11D9F5F1196E09137
S11324204802F091490281818770823009F421E0E9
S1132430222349F020E030E080914F02823081F481
S113244021E030E00DC08FB7F894282F332760E0E7
S113245080915B12833008F461E02FBF262F33276D
S1132460232B09F45EC0191B912F18C00DB407FE6D
S1132470FDCF8EB51EBC8C938D914827042E4295BA
S1132480407F4025052E542F42954F7004264695D3
S113249054274527440F440F440F4025915030F7EB
S11324A00DB407FEFDCF8EB51EBC9A012827022E5F
S11324B02295207F2025032E322F22952F7002266D
S11324C0269532272327220F220F220F20250DB411
S11324D007FEFDCF8EB51EBC2827022E2295207F35
S11324E02025032E322F22952F700226269532277F
S11324F02327220F220F220F20250DB407FEFDCF24
S11325008EB5E0914802F0914902ED57FF4F808368
S1132510289A15E01093A21410922F02232B31F065
S113252028C20DB407FEFDCF8EB5F0C6E090480278
S1132530F090490267010894C11CD11CF701818104
S113254090E0282F3327277030702230310509F4AA
S113255091E080914F02992321F1823009F038C132
S1132560F7019381E091AC14F091AD148381981735
S113257009F02EC12230310509F02AC180916F0083
S11325808D7F80936F001092100DBF0180E00E9438
S1132590A10410924F021092750280E00E94C00ABA
S11325A017C18823C9F4C7010E94E5048823A1F058
S11325B01093480B82E08093490B10924A0BF70169
S11325C0838180934B0B88E49BE00E94CD0A88238F
S11325D019F483E080934F020091840010918500E8
S11325E0C7010E94E504882311F0045E1C4F109378
S11325F0EE0B0093ED0B8091840090918500B8015F
S1132600681B790B16161706E4F48091750288236B
S1132610A9F490E08091100D882309F491E09923A6
S113262081F081E08093BC0A8093100D8091840036
S1132630909185000E94B60380E801C08068809371
S11326407502F601808527819927582F442733275F
S1132650422B532B80915502282F3327F901EE0F7B
S1132660FF1FE051FD4E808191817091130D8417FD
S1132670950769F4F901EA55FB4E8081871709F43F
S113268072C0872F8F5F8093130D808322C000E078
S113269010E080E090E030EFA32E32E1B32E26EA82
S11326A0822E24E1922ED401682F9C01F5018081B1
S11326B091818417950779F4209355029091130D15
S11326C08C91891709F44FC0892F8F5F8093130D64
S11326D08C9300E82FC0F4018081F72FF81B0F17AB
S11326E010F40F2F122F6F5FC9010196119622E08B
S11326F030E0A20EB31E0894811C911C8530910514
S113270099F66530B9F410935502A12FBB27FD014A
S1132710EE0FFF1FE051FD4E518340838091130D56
S11327208F5F8093130DFD01EA55FB4E8083AA54FD
S1132730BB4E1C929091130D892F8F778F3779F4AC
S11327400F3768F0E6EAF4E1292F207880818F675B
S113275089132083319634E1EB3AF307B9F780917A
S11327605502282F3327F6019281A22FBB27FD01A2
S1132770EA54FB4E808180FF07C0FD01E45AFD4E00
S11327808081981729F102C081608083A45ABD4ECC
S11327909C93DFB6F89480915B128330B0F4E0919F
S11327A00513E80FE33008F0E350FF27EE0FFF1F97
S11327B0E55CFD4F00811181F182E0828F5F80939F
S11327C05B1285E00E94AB0178018D2D99278FBFA4
S11327D0F0924902E0924802C3C0892F81508330AD
S11327E008F09CC081508230E0F43091A214313062
S11327F0C1F420E08091100D882309F421E0222304
S113280081F02F9883E08093BC0A3093100D80915F
S11328108400909185006BE273E00E94B60382E02D
S113282068C0933009F042C08091A214833009F04B
S1132830A0C00E94890A8823C9F128988FE88EBD18
S11328400DB407FEFDCF8EB51EBC0DB407FEFDCF43
S11328508EB5289A8091810080648093810080E203
S113286086BB80916F00806280936F0090916A02B2
S1132870289888EC8EBD0DB407FEFDCF8EB590660A
S11328809EBD0DB407FEFDCF8EB5289A289882EC24
S11328908EBD0DB407FEFDCF8EB586E08EBD0DB4A2
S11328A007FEFDCF8EB5289A84E023C080912F02C5
S11328B08150823000F58091A2148530E1F40E94A9
S11328C0890A8823C1F0289882EC8EBD0DB407FED6
S11328D0FDCF8EB583E08EBD0DB407FEFDCF8EB562
S11328E0289A80916F008F7D80936F001092EB1275
S11328F083E08093A21490912F02913041F480914F
S1132900A2148330B1F52F9A9093A21425C092306B
S113291039F58091A214833061F51EC0973001F51A
S11329200E94890A8823E1F090916A02289888EC31
S11329308EBD0DB407FEFDCF8EB590669EBD0DB461
S113294007FEFDCF8EB5289A8091A214853021F41C
S113295084E08093A21404C088E080932F0204C012
S113296080912F02883029F410922F0283E00E9474
S1132970AB0180912F02882309F58091A214853040
S1132980D1F48091EB128823B1F480914F02882313
S113299091F480917502882371F490E08091100D78
S11329A0882309F491E0992331F00E94B50A8091BB
S11329B02F02882319F489E00E94AB018091100D45
S11329C0823009F0AAC41092100DF090BC0AF2E013
S11329D0FF1609F47DC023E0F21609F481C031E04A
S11329E0F31609F09AC48091ED0B9091EE0B60916F
S11329F084007091850020917502203829F410928A
S1132A0075020E94B50A89C48C01061B170B27FFA7
S1132A1003C01016110604F1C0907202D090730224
S1132A2080914F028823C1F4C6010E94CD0A9927E0
S1132A30882369F4F601EE57FF4F80818E7F8083EF
S1132A40F0924F02D092AD14C092AC143DC09927BD
S1132A50F82E8823C9F102C065E0F62E2091750294
S1132A60822F99278F770197B1F4207822602093E1
S1132A70750280E198E00E94E00321E02093BC0A03
S1132A802093100D2091840030918500BC01C90170
S1132A900E94B60342C427FF13C01016110684F423
S1132AA080E88093750281E08093BC0A8093100DC6
S1132AB08091840090918500B8010E94B60302C001
S1132AC0109275028F2D09C083E08093750225C48E
S1132AD010924F021092750280E00E94C00A1DC439
S1132AE08091A214823019F4F092A21413C0809140
S1132AF02F02863079F410922F02289881E88EBD37
S1132B000DB407FEFDCF8EB51EBC0DB407FEFDCF80
S1132B108EB5289A81E00E94AB01FFC32FB7F894C9
S1132B20332780916B028093070282E0809318021E
S1132B302FBF80910702882309F0EFC380916C02B4
S1132B4090916D020E945504882309F4E6C380E045
S1132B500E9403040E944C0480E0DDCF8091740243
S1132B6010927402853019F410924202D6C3863052
S1132B7009F4D3C3873009F4D0C333C0109174026D
S1132B801130B9F58091140D8F5F8093140D863048
S1132B9080F520911A0D30911B0D809175028823C8
S1132BA019F590E08091100D882309F491E09923A0
S1132BB0D9F03093730220937202109375028BED57
S1132BC091E10E94E003BC011093BC0A1093100D24
S1132BD080918400909185000E94B6031092101396
S1132BE083E08093740299C385E08093101382E09C
S1132BF0F8CF1092740210911013E0901A0DF09017
S1132C001B0DF70182858F3309F087C380E00E9492
S1132C100304112309F09ECF3FB7F8942091BB140D
S1132C20E22FFF27EE0FFF1FE153F44F80819181C4
S1132C30E816F90671F4822F8F5F8093BB148A30F3
S1132C4010F01092BB1480914202882311F010926C
S1132C504202832F99278FBF7FCF2FBF5EC3C80146
S1132C60B701F0C00E94FB01EFBE57C38FB7F894C1
S1132C70282F332780915B12882379F3E091051381
S1132C80FF27EE0FFF1FE55CFD4FA081B1812FBF31
S1132C90FD018285978126818F3381F4BD01645FB4
S1132CA07F4F8C918D50482F55278FB7F8949927D3
S1132CB08FBFCD010E94830CDC011AC0892F992794
S1132CC0582F4427822F9927482B592B8FB7F894D4
S1132CD0992720910202309103028FBF42175307B4
S1132CE019F04F5F5F4F21F48FB7F89499278FBF86
S1132CF09FB7F89480910513E82FFF27EE0FFF1F6D
S1132D00E55CFD4FB183A0838F5F8093051383300F
S1132D1010F01092051380915B12815080935B1226
S1132D20892F99278FBFA2CF4FB74983F89420905A
S1132D30A70A3090A80A4090A90A5090AA0A6624CB
S1132D40772488249EE4A92E83E8B82ECC24DD249D
S1132D50EE24FF2400E010E0222D332D442D552DC8
S1132D60662D772D882D90E00E94B51C2A833B8325
S1132D704C835D836E837F8388879987822E932E0D
S1132D80A42EB52E2401350100E20E94B31DA22E0B
S1132D90B32EC42ED52EA30192015695479537958F
S1132DA027952A0D3B1D4C1D5D1D57FF05C05F7700
S1132DB02F5F3F4F4F4F5F4F2093A70A3093A80ACE
S1132DC04093A90A5093AA0A6981862F99278FBF35
S1132DD08FB7F89499273093220D2093210D91C039
S1132DE080916902882361F52091FB123091FC12D5
S1132DF04091FD125091FE12EFB7F894FF276091B5
S1132E004402709145028091460290914702E090FD
S1132E100C13F0900D1300910E1310910F136E0DFF
S1132E207F1D801F911FEFBF2093FB123093FC1274
S1132E304093FD125093FE12109269020E949C036B
S1132E400E94D2010E94D50268C20E94D2017B0175
S1132E508C018FB7F89499271092A10A8FBF8091A3
S1132E60010C81FF5AC28091F90B9091FA0BA09149
S1132E70FB0BB091FC0BA8019701281B390B4A0BE3
S1132E805B0BDA01C9012091FD0B3091FE0B4091DF
S1132E90FF0B5091000C281B390B4A0B5B0B2F3F87
S1132EA06FEF36076FEF46076FE7560709F435C231
S1132EB012161306140615060CF0D1CE2093FB123D
S1132EC03093FC124093FD125093FE1281E08093E4
S1132ED06902C801B7010E949C031FC28FB7F8940E
S1132EE0992710920D0D10920C0D1092A1141092AE
S1132EF0A01410923202109231021092EC0B109234
S1132F00EB0BFAC12FB7F89433278091B90A809359
S1132F100A0282E0809319022FBF80910A0288235B
S1132F2009F0FBC1209A289A8091A214882309F001
S1132F30F1CD8EEF91E0019701960197E1F7169894
S1132F402F9886E090E0019701960197E1F7169A91
S1132F50289883EC8EBD0DB407FEFDCF8EB51EBC44
S1132F600DB407FEFDCF8EB5289A289882EC8EBD4D
S1132F700DB407FEFDCF8EB588E08EBD0DB407FEFF
S1132F80FDCF8EB5289A8EEF91E0019701960197B7
S1132F90E1F728988EEC8EBD0DB407FEFDCF8EB5FB
S1132FA08DE48EBD0DB407FEFDCF8EB5289A28980A
S1132FB089EC8EBD0DB407FEFDCF8EB587EC8EBDBA
S1132FC00DB407FEFDCF8EB5289A289885EC8EBDEA
S1132FD00DB407FEFDCF8EB58FE88EBD0DB407FE90
S1132FE0FDCF8EB5289A8FE08093470B85E18093BF
S1132FF06A02289888EC8EBD0DB407FEFDCF8EB50D
S113300085E78EBD0DB407FEFDCF8EB5289A2F9AA5
S113301081E08093A21480E00E947F027EC18FB77A
S1133020F8941092A5142091180D40E0283009F46A
S113303041E030E0293009F431E0442311F4332332
S113304051F01092180DE091F80BFF27EE0FFF1FBF
S1133050E354F54F108299278FBF442311F433238F
S113306031F19FB7F894809106138F5F8093061314
S11330708091B80A833479F42091E40B8091E30BB6
S1133080821779F0822F8F5F8093E40B863048F0AB
S11330901092E40B06C0A0E0442309F4A1E071E01F
S11330A002C0A0E070E0892F99278FBF06C02223B9
S11330B011F010E06CC0A0E070E08FB7F89499278D
S11330C020911A028FBF222341F08FB7F8949927D9
S11330D02AE02093180D8FBF42C08FB7F894992728
S11330E06091BD0A4091BF0A8FBF8FB7F894282F13
S11330F0332750E09091E30B8091E40B981709F487
S113310051E02FBF552341F5662331F55FB7F8949D
S113311082E08093BD0A8FB7F894282F332740E0CC
S11331209091E30B8091E40B981709F441E02FBFD1
S1133130442311F080E006C0E091E40BFF27ED5139
S1133140F44F82818093BE0A83E48093B80A10927C
S1133150F80B852F99270EC04150423010F010E033
S11331600BC08FB7F894992725E42093B80A21E07F
S11331702093F80B8FBF11E0772349F08FB7F894B1
S11331809927A09323028FBF80E10E94AB018FB7E0
S1133190F894E82EFF248091180D8A3009F462CD4A
S11331A0EFBE112309F4B9C02FB7F8943327109256
S11331B0B3141092B2141092B10A81E08093180DE6
S11331C02FBF0E944E02882309F4A7C08FB7F8943A
S11331D0992729E02093180D8FBF0E9462029DC099
S11331E08091C1008F7B8093C1008091C1008F7753
S11331F08093C1001092150D10929C0A8091C10019
S113320088608093C1008091C10080618093C10077
S11332108091C10080688093C1008FB7F89499278A
S11332201092180D109277028FBF1092AB0AE090A3
S1133230AE14F090AF14002711270E94D2016093BE
S1133240F90B7093FA0B8093FB0B9093FC0BE092B9
S1133250FD0BF092FE0B0093FF0B1093000C80917A
S1133260010C8E7F82608093010C88E054CC8FE047
S113327052CC8091C100877F8093C1008091C100AE
S11332808F7E8093C10049C01092200210921F02C9
S11332908FB7F8949927209123028FBF809124023D
S11332A0811123E080912502882309F036C022236E
S11332B0A1F10E94A20131C08FB7F89499272091FF
S11332C028023091290240914C028FBF8FB7F894A5
S11332D0E42FFF27EE0FFF1FE45FFD4F31832083B0
S11332E020911B02442311F02B7F01C02D7F2093DA
S11332F01B021092260299278FBF0FC080910502EE
S11333008F3F11F00C948D100C948A10289A85E04C
S11333108093A21410922F022CCB29960FB6F89406
S1133320DEBF0FBECDBFDF91CF911F910F91FF90F4
S1133330EF90DF90CF90BF90AF909F908F907F9051
S11333406F905F904F903F902F900895809102135B
S11333508F3FB1F0282F3327F901EA5AFD4F8081BE
S1133360809302138F3F11F48093AB148FEF80830B
S11333702F3F31F0822F0E949D0F81E090E008954D
S113338080E090E00895FF920F931F93FFB6F894A6
S113339014BE88E10FB6F894809360001092600028
S11333A00FBE42E150E06FEF70E086E592E00E94CC
S11333B0DA1F8FEF809302138093AB1456985E98B4
S11333C054985C9880916F008F7D80936F00209A51
S11333D0289A279A2F980E9A169A81EC9AE090933D
S11333E04902809348021092AC0A8AE580937102E4
S11333F081E08093810080E28093B60083E0809333
S1133400B10080918400909185004AE72091840066
S1133410309185002817390708F44150442311F0EE
S1133420C901F4CF9091B2008091B2008917E1F301
S113343020918400309185009091B2008091B20077
S11334408917E1F38091840090918500821B930B8E
S11334504096F5E096958795FA95E1F790930413D5
S1133460809303131092B1008091B1008093810086
S1133470809181008093B6001092B2001092850072
S1133480109284008FEF87BB87B386BB8091B60010
S11334908571E1F70A9A099A089A129A119A109A70
S11334A018B88FEF87B90C98149810929500109261
S11334B094008091710081608093710080919100EB
S11334C0887F82608093910010928500109284001E
S11334D080916F00816080936F0080918100887F6C
S11334E08260809381000E94A6198823E1F712E08C
S11334F006E0609103137091041388279927ECE088
S1133500660F771F881F991FEA95D1F720E031EEE7
S113351040E050E00E945D1E215030402093C400E2
S1133520832F99278093C5001093C0000093C20095
S11335301092C1002093CC008093CD001093C8005A
S11335400093CA001092C90084E490E09093ED12B5
S11335508093EC121092BD0A1092BF0A8AE0809305
S1133560180D1092B10A1092B80A10920613109214
S1133570B3141092B2141092A5141092F80B109276
S1133580E7121092E61284E0809377021092260DDF
S11335901092FA1210929D0A1092F50B1092F40BED
S11335A01092E40B1092E30B8FEF8093B60A80E045
S11335B00E943E0A182F8091B60080628093B60064
S11335C08091B60081FDFCCF82E08093B0008091B1
S11335D0B60080FDFCCF83E08093B1008091B600FB
S11335E083FDFCCF86EE8093B300809170008260EF
S11335F0809370000E941003809100029091010258
S11336000196AA27BB278093A70A9093A80AA093A0
S1133610A90AB093AA0A81E193E190933C028093B2
S11336203B0286E993E190933E0280933D028BE155
S113363094E19093400280933F028FEF9FEF909329
S1133640F1128093F0129093F3128093F2129093FC
S1133650F5128093F4129093F7128093F6129093DC
S1133660F9128093F812809100028295807F8093F2
S11336702E028FEF809370020E94A6198823E1F72F
S11336808F2D99278FBF789486E190E00E94D51EF4
S11336909093B1148093B01486E190E00E94D51EFB
S11336A090939F0A80939E0A86E190E00E94D51E23
S11336B09093B30A8093B20A86E190E00E94D51EEB
S11336C090933A028093390286E190E00E94D51EDD
S11336D09093CE0B8093CD0B86E190E00E94D51E93
S11336E090934B0280934A0286E190E00E94D51E9B
S11336F0909334028093330280E091E09093AF146E
S11337008093AE1481E090E0909338028093370266
S11337109093200D80931F0D9093280D8093270D77
S113372090930F0D80930E0D9093250D8093240D8F
S113373090930B1380930A139093A60A8093A50A7F
S11337409093A30A8093A20A90934E0280934D0211
S113375090931D0D80931C0D9093790280937802B1
S11337609093120D8093110D21E020930113109278
S1133770B70A1092F30B1092760282E18093A40AA6
S11337801092A00A10923602109200131092FF12A7
S11337901092460B1092170D1092160D8FE790E0C1
S11337A0909308138093071310922D0210922C0209
S11337B09093B50A8093B40A209341021092540264
S11337C01092190D81E692E190936F0280936E023C
S11337D010921E0D10924302109209132093AB0A0B
S11337E0EFECFBE089E29DE0819391938B579F4F2F
S11337F02BE0E33EF207C1F71092BB1410923002A3
S11338001092350281E080934202809174028823F1
S1133810E9F480912F028823C9F48091A2148130A5
S113382049F490E08091100D882309F491E09923E4
S113383069F003C0853009F495C083E080932F02BA
S113384081E00E94AB0185E0809374028FB7F89405
S1133850282F3327922F8091180D8A3041F08091C0
S11338607702843021F02FBF1092AB0A04C09FBFAF
S11338708DE00E94AB018FB7F894482F552757C0AD
S113388080917000992783709070892B19F4E5E07A
S1133890F0E014C08091B6008A71E1F78091B30022
S11338A09091B200891B8C3038F08091B200853F32
S11338B018F4E3E0F0E002C0E2E0F0E080916E0092
S11338C0867009F580916F008E72E9F48091710021
S11338D08E72C9F40CB407FC16C08091C1008871C3
S11338E091F48091C900887171F48091BC0082FDCB
S11338F00AC080917A0087FF03C081E090E005C090
S113390085E090E002C080E090E023B78E1708F4D1
S1133910E82FFF27E051FD4FE491207F2160E22B47
S1133920E3BF78948895F89483B78E7F83BF8091A2
S113393002138F3F09F4A4CF282F3327F901EA5A41
S1133940FD4F8081809302138F3F11F48093AB1459
S11339508FEF80832F3F09F493CF4FBF822F0E94B4
S11339609D0F89CF1092420271CFACE2B0E0EBEB35
S1133970FCE10C949E1E222E332E442E552E662ED0
S1133980772E882E992EFE013196A8E01192AA95E1
S1133990E9F729823A824B825C826D827E828F8231
S11339A09886FE013996B8E01192BA95E9F7A9868E
S11339B0BA86CB86DC86ED86FE860F87188B8981D6
S11339C09A81AB81BC8189A79AA7ABA7BCA77C01CC
S11339D08D018FEF9FEFA0E0B0E0E822F9220A23E7
S11339E01B2389A59AA5ABA5BCA51D014424552478
S11339F089859A85AB85BC858DA39EA3AFA3B8A703
S1133A005C016D018FEF9FEFA0E0B0E0A822B92226
S1133A10CA22DB228DA19EA1AFA1B8A53D018824B5
S1133A209924C801B701A60195010E947F1E69A3CC
S1133A307AA38BA39CA3C801B701A40193010E949C
S1133A407F1E7B018C01C201B101A60195010E9478
S1133A507F1E5B016C01C201B101A40193010E94AC
S1133A607F1E3B014C01EA0CFB1C0C1D1D1D89A192
S1133A709AA1ABA1BCA19D01442755272E0D3F1D42
S1133A80401F511F2A153B054C055D0540F480E09D
S1133A9090E0A1E0B0E0680E791E8A1E9B1ECA0168
S1133AA0AA27BB27860D971DA81DB91D8D8F9E8F34
S1133AB0AF8FB8A3A9013327222789A19AA1ABA16B
S1133AC0BCA1A070B070280F391F4A1F5B1F298F3B
S1133AD03A8F4B8F5C8FA98CBA8CCB8CDC8CED8CA1
S1133AE0FE8C0F8D18A1FE01719698E011929A95A3
S1133AF0E9F7ED8AFE8A0F8B188F2D813E814F8165
S1133B0058856DA17EA18FA198A50E947F1E3B01BF
S1133B104C012D853E854F85588969A57AA58BA5CD
S1133B209CA50E947F1E2D893E894F89588D260FA2
S1133B30371F481F591F260D371D481D591D2D8B32
S1133B403E8B4F8B588F6D887E888F88988C2A2D5A
S1133B503B2D4C2D5D2D662D772D882D992DE2E181
S1133B60AC960C94BA1EA0E1B0E0E9EBFDE10C9434
S1133B709E1E222E332E442E552E662E772E882EF0
S1133B80992E002309F466C088E0FE013196119253
S1133B908A95E9F729833A834B835C836D837E831B
S1133BA08F829887E0E2E01B1E16CCF52D813E81C2
S1133BB04F815885602F772767FD7095DA01C90119
S1133BC0062E04C0B695A795979587950A94D2F7C3
S1133BD08D879E87AF87B88B04C0220F331F441F85
S1133BE0551FEA95D2F789819A81AB81BC8104C0C3
S1133BF0B695A795979587956A95D2F7282B392B73
S1133C004A2B5B2B29873A874B875C8729843A8424
S1133C104B845C846D847E848F8498881BC01D864D
S1133C201E861F86188A2E2F332727FD3095309540
S1133C3021953F4F8D819E81AF81B88504C0B69593
S1133C40A795979587952A95D2F789879A87AB8701
S1133C50BC87DCCF222D332D442D552D662D772D99
S1133C60882D992DE2E160960C94BA1EAA1BBB1B09
S1133C7051E107C0AA1FBB1FA617B70710F0A61B68
S1133C80B70B881F991F5A95A9F780959095BC0189
S1133C90CD01089597FB092E07260AD077FD04D09D
S1133CA0E5DF06D000201AF4709561957F4F0895E2
S1133CB0F6F7909581959F4F0895A1E21A2EAA1BBD
S1133CC0BB1BFD010DC0AA1FBB1FEE1FFF1FA217C8
S1133CD0B307E407F50720F0A21BB30BE40BF50BC5
S1133CE0661F771F881F991F1A9469F7609570954E
S1133CF0809590959B01AC01BD01CF010895629F11
S1133D00D001739FF001829FE00DF11D649FE00DCF
S1133D10F11D929FF00D839FF00D749FF00D659F30
S1133D20F00D9927729FB00DE11DF91F639FB00D2F
S1133D30E11DF91FBD01CF01112408952F923F9277
S1133D404F925F926F927F928F929F92AF92BF92A7
S1133D50CF92DF92EF92FF920F931F93CF93DF9353
S1133D60CDB7DEB7CA1BDB0B0FB6F894DEBF0FBEB0
S1133D70CDBF09942A88398848885F846E847D84FD
S1133D808C849B84AA84B984C884DF80EE80FD80FF
S1133D900C811B81AA81B981CE0FD11D0FB6F89475
S1133DA0DEBF0FBECDBFED010895CF93DF93AC010D
S1133DB0029710F442E050E0A091BE14B091BF14F9
S1133DC0FD01C0E0D0E020E030E020C0808191819E
S1133DD08417950769F482819381209719F09B8356
S1133DE08A8304C09093BF148093BE14CF0132C061
S1133DF04817590738F42115310519F0821793072C
S1133E0008F49C01EF010280F381E02D3097F1F674
S1133E102115310589F1C901841B950B049708F418
S1133E20A901E0E0F0E026C08D919C9111978217E2
S1133E309307E9F44817590779F4ED018A819B81C6
S1133E40309719F09383828304C09093BF148093B6
S1133E50BE14CD0102964CC0841B950BFD01E80FE6
S1133E60F91F4193519302978D939C933DC0FD019B
S1133E70A281B3811097C1F68091BC149091BD14B6
S1133E80892B41F480911402909115029093BD14F2
S1133E908093BC142091160230911702211531052C
S1133EA041F42DB73EB78091120290911302281B62
S1133EB0390BE091BC14F091BD14E217F307B0F490
S1133EC02E1B3F0B2417350788F0CA0102962817CA
S1133ED0390760F0CF01840F951F02969093BD14AB
S1133EE08093BC1441935193CF0102C080E090E0D1
S1133EF0DF91CF910895CF93DF93009709F44EC0DB
S1133F00EC0122971B821A82A091BE14B091BF14B7
S1133F10109711F140E050E001C0DC01AC17BD077F
S1133F2000F1BB83AA83FE0121913191E20FF31FBB
S1133F30EA17FB0771F42E5F3F4F8D919C91119707
S1133F40820F931F99838883FD01828193819B83D0
S1133F508A834115510559F4D093BF14C093BE14FC
S1133F601DC0FD0182819381AD010097B1F6FA0174
S1133F70D383C28321913191E20FF31FEC17FD0724
S1133F8069F42E5F3F4F88819981820F931FFA0154
S1133F90918380838A819B8193838283DF91CF91F4
S1133FA00895FB01DC0102C001900D924150504084
S1133FB0D8F70895DC0101C06D9341505040E0F7FB
S1073FC00895FFCF8E
S1133FC40100010022FFFFFFFFFFFFFF020C870C2B
S10B3FD4020C2000C0140000DF
S9030000FC
