S01700006275696C642F697269732F6D61696E2E7372656343
S11300000C948F010C94630F0C946D0F0C94770F68
S11300100C94810F0C948B0F0C94950F0C949F0FE0
S11300200C94A90F0C94AE010C94AE010C94AE0187
S11300300C94AE010C9498140C94AE010C949E0A8A
S11300400C94A71B0C946F1B0C94550B0C94600B15
S11300500C946B0B0C94AE010C94AE010C94AE0199
S11300600C94B20A0C94560D0C94AE010C94D90D58
S11300700C94AE010C94AE010C94AE010C94300FB0
S11300800C940F0F0C941A0F0C94250F0C94430F1F
S11300900C94F20E0C94AE010C94040F0C94702486
S11300A00C94AE010C94AE010C94AE010C94AE0110
S11300B00C94AE010C94AE010C94AE010C94AE0100
S11300C00C94AE010C94AE010C94AE01B3265627E9
S11300D0A7273C2C5F2C6F2CB42C122D1C2D512DDA
S11300E0542D582D6D2D702D732D9B2D9F2DAA2DC4
S11300F0E82DEB2D3B2E4D2E502E522E572E5A2EE0
S11301005D2E602E632EA32EA62EEC2EEF2EF22E45
S1130110F62EFE2E012F052F000021104220633001
S11301208440A550C660E770088129914AA16BB14B
S11301308CC1ADD1CEE1EFF13112100273325222F3
S1130140B5529442F772D662399318837BB35AA39B
S1130150BDD39CC3FFF3DEE36224433420040114C3
S1130160E664C774A44485546AA54BB528850995EB
S1130170EEE5CFF5ACC58DD5533672261116300693
S1130180D776F6669556B4465BB77AA7199738873B
S1130190DFF7FEE79DD7BCC7C448E5588668A77853
S11301A04008611802282338CCC9EDD98EE9AFF98B
S11301B0488969990AA92BB9F55AD44AB77A966A33
S11301C0711A500A333A122AFDDBDCCBBFFB9EEBDB
S11301D0799B588B3BBB1AABA66C877CE44CC55C03
S11301E0222C033C600C411CAEED8FFDECCDCDDD2B
S11301F02AAD0BBD688D499D977EB66ED55EF44ED3
S1130200133E322E511E700E9FFFBEEFDDDFFCCF7A
S11302101BBF3AAF599F788F8891A981CAB1EBA1CE
S11302200CD12DC14EF16FE18010A100C230E3204A
S11302300450254046706760B9839893FBA3DAB3F2
S11302403DC31CD37FE35EF3B1029012F322D2329A
S11302503542145277625672EAB5CBA5A8958985C2
S11302606EF54FE52CD50DC5E234C324A0148104EA
S11302706674476424540544DBA7FAB79987B89792
S11302805FE77EF71DC73CD7D326F2369106B0163A
S113029057667676154634564CD96DC90EF92FE952
S11302A0C899E9898AB9ABA944586548067827688A
S11302B0C018E1088238A3287DCB5CDB3FEB1EFB32
S11302C0F98BD89BBBAB9ABB754A545A376A167ADA
S11302D0F10AD01AB32A923A2EFD0FED6CDD4DCD02
S11302E0AABD8BADE89DC98D267C076C645C454C2A
S11302F0A23C832CE01CC10C1FEF3EFF5DCF7CDFD2
S11303009BAFBABFD98FF89F176E367E554E745E79
S1130310932EB23ED10EF01E00020E060C041124E0
S11303201FBECFEFD1E2DEBFCDBF12E0A0E0B2E04E
S1130330EAE1FBE600E00BBF02C007900D92A83291
S1130340B107D9F71AE0A8E2B2E001C01D92A13FBB
S1130350B107E1F70E943F2F0C948C350C940000F8
S11303608FB7F894992708958FBF0895282F9FB7C2
S1130370F894E82FFF27E358FD4F80818F3F81F4E5
S1130380E091DB0AE21771F40BC020932A0904C040
S1130390FF27E358FD4F20832093DB0A20E007C0AA
S11303A025E005C080912A098F3F91F7EECF892F70
S11303B099278FBF822F9927089582E00E94B60162
S11303C09927089581E00E94B6019927089580E253
S11303D00E94B60199270895CF93DF93982F8FB782
S11303E0F894282F3327422F80914302882321F544
S11303F081E0809343029093C8022FBF8FB7F89493
S1130400C82FDD279C2F80911802823099F48091A7
S11304104302813021F488E10E94B60109C0823090
S113042049F48091C8028093180283E080934302C8
S1130430CFBF07C09FBF05C08091C802891721F4B0
S11304402FBF80E090E021C0E92FFF27E954FD4F42
S113045080818F3F89F4E0911702E91789F40CC079
S11304609093160204C0FF27E954FD4F90839093A4
S1130470170280E090E002C085E090E04FBF05C025
S1130480809116028F3F79F7EBCFDF91CF910895DA
S11304908FB7F89499272091BC00209347058FBF0C
S11304A008951F93CF93DF93982F8FB7F894282F35
S11304B03327422F80914402882309F044C011E07D
S11304C0109344029093A4022FBF8FB7F894C82FBF
S11304D0DD27809145028823B9F4509851981092F1
S11304E0B90081E48093B8001092BA001092BC0065
S11304F00E9448028091470584608E7F809347055F
S11305008093BC0010934502CFBF8FB7F894C82FD7
S1130510DD279C2F80911B02843099F48091440242
S1130520813021F48BE10E94B60109C0823049F484
S11305308091A40280931B0283E080934402CFBF86
S113054007C09FBF05C08091A402891721F42FBF63
S113055080E090E021C0E92FFF27E259FD4F808120
S11305608F3F89F4E0911A02E91789F40CC0909343
S1130570190204C0FF27E259FD4F908390931A0299
S113058080E090E002C085E090E04FBF05C080911C
S113059019028F3F79F7EBCFDF91CF911F91089527
S11305A01F93982F8FB7F894182F809148028330A7
S11305B0D1F5809120028917B1F580911E0220E0C7
S11305C030E08F3F11F421E030E0232BE9F48F3F3A
S11305D019F42FEF30E00EC0282F3327F901EE5C19
S11305E0F64F808180931E028F3F11F480931F0287
S11305F08FEF8083209314048FEF8093200281E097
S11306008093480283E209C082E080932002109222
S1130610480281E08093490285E20E94B6011FBF2F
S113062080E090E003C01FBF81E090E01F91089537
S1130630EF920F931F93AE2D99E0899FF00111243F
S1130640EB5EFB4F40835183628373830483158382
S113065026833783A17080858E7F8A2B8260808772
S113066089E00E94B6011F910F91EF9008957FB722
S1130670F8946091B2002091760230917702409113
S1130680780250917902B99B11C08091B300909186
S1130690B200280F311D411D511D2F5F3F4F4F4F99
S11306A05F4F290F311D411D511D04C0260F311DFF
S11306B0411D511D872F99278FBFCA01B901089584
S11306C0AF92BF92CF92DF92EF92FF920F931F935C
S11306D0F82E5A016B010E943703AB01BC0181E083
S11306E0E82E960185018F2D0E9418031F910F910A
S11306F0FF90EF90DF90CF90BF90AF9008954FB7E9
S1130700F89420914802222319F421E030E00FC02C
S113071080912002823019F020E030E008C080E0AF
S113072090E02150223010F481E090E09C01842F6D
S113073099278FBF822F992708950F931F930FB77F
S1130740F89411270E944802809147058E7F8069A2
S1130750809347058093BC000FBF1F910F910895AC
S11307604FB7F89420914002222319F421E030E09D
S11307700FC080911502823019F020E030E008C0EB
S113078080E090E02150223010F481E090E09C0160
S1130790842F99278FBF822F99270895CF93DF93B2
S11307A08FB7F894C82FDD279C2F809115028230D3
S11307B0A9F480914002813021F485E10E94B601C0
S11307C009C0823059F48091EF068093150283E0CA
S11307D080934002CFBF80E090E003C09FBF81E0E0
S11307E090E0DF91CF910895982F8150883018F0D0
S11307F082E090E008958091BD02882319F085E09D
S113080090E0089581E08093BD0280934B02909321
S1130810F606892F9927019721E030E002C0220FC4
S1130820331F8A95E2F78091D50A822B8093D50AEB
S113083081E00E94510280E090E00895982F815059
S1130840883018F082E090E0089580913B09882375
S113085019F085E090E0089581E080933B0980934E
S1130860360990935405892F9927019721E030E0A8
S113087002C0220F331F8A95E2F78091DD0282279E
S11308808093DD0280E00E94510280E090E00895B0
S113089090E087FF02C0779A01C07798439A439803
S11308A09F5F983011F0880FF4CF08956F98779A6E
S11308B0439A679B03C081E090E00895439880E0E9
S11308C090E008952FB7F894EF9890E89CBB90912E
S11308D06A00906890936A00882321F080916A00EE
S11308E0806403C080916A008F7B80936A00EF9AD2
S11308F0822F99278FBF80E090E0089580E020E068
S1130900439A67998160273031F0880F43982F5FAD
S1130910283011F0F5CF43986F9A7798439A43980B
S11309206F98779A992708956F9A779A439A43987C
S113093008958FB7F894992722B131E0232722B97B
S11309408FBF089580914F058A3021F48091BC02B5
S1130950843021F081E080932A0208958FE00E9480
S1130960B60110922A0208952FB7F8943327809382
S1130970C600E0ECF0E08081806480832FBF08959E
S1130980FC016115710519F481E090E008958091EE
S1130990E2029091E302892B19F085E090E008953A
S11309A07093900860938F08F093E302E093E2025F
S11309B01092C2021092C10281E08093C30280911E
S11309C0C00080648093C0008091C10080648093E3
S11309D0C100808121E030E03093C2022093C10243
S11309E00E94B40480E090E008958FB7F8949927AA
S11309F020913B022E7F20933B022EE72093A502F9
S1130A008FBF61E070E085EA92E00E94C0049927FC
S1130A1008951F931FB7F8948091D30A882341F453
S1130A208DE00E94B601882319F481E08093D30AF3
S1130A30812F99278FBF1F9108951F93CF93DF9321
S1130A408FB7F8941092D30A20914F0540E02830D4
S1130A5009F441E030E0293009F431E0442311F491
S1130A60332351F010924F05E0911304FF27EE0F4A
S1130A70FF1FEB51FD4F108299278FBF442311F4C0
S1130A80332331F19FB7F89480912E098F5F8093BF
S1130A902E098091E002833479F42091FE03809141
S1130AA0FD03821779F0822F8F5F8093FE038630D7
S1130AB048F01092FE0306C0A0E0442309F4A1E02C
S1130AC071E002C070E0A0E0892F99278FBF06C0B3
S1130AD0222311F010E06CC070E0A0E08FB7F8940E
S1130AE0992720912A028FBF222341F08FB7F894CF
S1130AF099272AE020934F058FBF42C08FB7F894FF
S1130B0099276091E5024091E7028FBF8FB7F8946F
S1130B10282F332750E09091FD038091FE0398170E
S1130B2009F451E02FBF552341F5662331F55FB732
S1130B30F89482E08093E5028FB7F894282F332746
S1130B4040E09091FD038091FE03981709F441E081
S1130B502FBF442311F080E006C0E091FE03FF277D
S1130B60E350FC4F82818093E60283E48093E002A9
S1130B7010921304852F99270EC04150423010F073
S1130B8010E00BC08FB7F894992725E42093E00276
S1130B9021E0209313048FBF11E0772349F08FB72E
S1130BA0F8949927A09333028FBF81E10E94B60184
S1130BB08FB7F894C82FDD2780914F058A3021F430
S1130BC00E94A204CFBF1DC0CFBF1123D1F02FB705
S1130BD0F89433271092E40A1092E30A1092DA028E
S1130BE081E080934F052FBF0E94F504882349F0CC
S1130BF08FB7F894992729E020934F058FBF0E945F
S1130C000905DF91CF911F910895882319F08CB5C0
S1130C10806402C08CB58F7B8CBD08950F931F93A5
S1130C20982F1FB7F89480912902823099F580910A
S1130C300A02891779F58091080220E030E08F3F9D
S1130C4011F421E030E0232BF1F49FEF90930A029A
S1130C508F3F19F42FEF30E00DC0282F3327F9010F
S1130C60E252FD4F8081809308028F3F11F49093EC
S1130C70090290832093E10281E0809329028CE0B1
S1130C800E94B60105C08FEF80930A0210922902D8
S1130C9001E001C000E0812F99278FBF1FB7F894AE
S1130CA080912902882311F40E940506812F992737
S1130CB08FBF90E0013009F491E081E09827892FFB
S1130CC099271F910F910895982F8FB7F894282F83
S1130CD03327422F80914002882389F441E04093D6
S1130CE040029093EF062FBF80914102882321F4A4
S1130CF086E10E94B60108C04093420205C080917B
S1130D00EF06891721F42FBF80E090E00895E92FC2
S1130D10FF27EC5CF64F80818F3F89F4E091140249
S1130D20E91789F40CC09093130204C0FF27EC5C0C
S1130D30F64F90839093140280E090E002C085E027
S1130D4090E04FBF0895809113028F3F79F7EBCF66
S1130D50982F8FB7F894282F3327422F8091480279
S1130D60882389F441E040934802909314042FBFF0
S1130D7080914902882321F484E20E94B60108C0CC
S1130D8040934A0205C080911404891721F42FBFAF
S1130D9080E090E00895E92FFF27EE5CF64F808114
S1130DA08F3F89F4E0911F02E91789F40CC09093F6
S1130DB01E0204C0FF27EE5CF64F908390931F023F
S1130DC080E090E002C085E090E04FBF08958091FC
S1130DD01E028F3F79F7EBCF8617970719F481E04E
S1130DE090E008958617970730F4681B790BCB01C0
S1130DF0880F991F0895861B970B880F991F0196DA
S1130E000895DC019C9121E001C02F5F422F5527FA
S1130E10FD01E40FF51F80818823B9F3292F3327BF
S1130E20241B350B43E0220F331F4A95E1F740E0C2
S1130E3050E0E82FFF27642F77274F5F5F4FCF01E4
S1130E40062E02C0959587950A94E2F7181619069E
S1130E5094F3C901860F971F08959C0153E03695BA
S1130E6027955A95E1F787709070892B11F4822F9A
S1130E7002C0822F8F5F99270895FC0140E050E063
S1130E8082819927982F882721813327822B932BBE
S1130E9087749C7C8154984811F441E050E0CA0165
S1130EA00895FC018181992780739070816498680A
S1130EB08183892F992782830895AF92BF92CF921D
S1130EC0DF92EF92FF920F931F93CF93DF935C0116
S1130ED06A0178018901EB01F3E0D695C795FA958B
S1130EE0E1F7CB01877090709A01280F391F2930E0
S1130EF0310530F522273327281B390B241B350BEA
S1130F00285F3F4FFE01EA0DFB1D81E090E002C027
S1130F10880F991F4A95E2F70197022E02C0880FA5
S1130F20991F0A94E2F780954181842304C0EE0C52
S1130F30FF1C001F111F2A95D2F78E29818362C0DE
S1130F40009749F1E8EFCE2EEFEFDE2EC20ED31E4E
S1130F50BE016F5F7F4FF501E60FF71FCA0DDB1D62
S1130F6028E030E0281B390B81E090E002C0880FB4
S1130F70991F2A95E2F7819529818223A801970177
S1130F800C2C04C056954795379527950A94D2F7AB
S1130F90822B8083EB01F501EC0FFD1F10C088EF5D
S1130FA09FEFC80ED91E2196D801C7010C2C04C08E
S1130FB0B695A795979587950A94D2F7808331962D
S1130FC098E0C916D10458F7C114D104D9F048E007
S1130FD050E04C195D09FE01EA0DFB1D81E090E033
S1130FE0042E02C0880F991F0A94E2F70197218109
S1130FF0282304C0EE0CFF1C001F111F4A95D2F7D2
S11310002E292183DF91CF911F910F91FF90EF90B3
S1131010DF90CF90BF90AF900895DF92EF92FF9250
S11310200F931F938FB7F894282F3327D22E9091C4
S1131030B3008091B20047B3981711F041FF02C08A
S11310402FBF71C08091C7028823E1F10E9437034A
S1131050E0906602F09067020091680210916902C4
S113106020913709309138094091390950913A0952
S11310706E197F09800B910B62177307840795071C
S113108020F01092C70271E01EC02E0D3F1D401FBC
S1131090511F8091760290917702A0917802B091CD
S11310A07902281B390B4A0B5B0B273E310541059E
S11310B0510540F4822F223010F070E005C070E03A
S11310C082E002C070E086EE682F61508091B60025
S11310D083FDFCCF8091B200681709F46F5F209103
S11310E07602309177024091780250917902DA01C8
S11310F0C9010196A11DB11D860F911DA11DB11D30
S113110082179307A407B50710F4622F60958091A6
S1131110B60083FDFCCF6093B300DFBE772319F0E4
S113112088E00E94B6011F910F91FF90EF90DF902D
S11311300895AFB7F894BB27E1E0E093C70260934A
S11311406602709367028093680290936902209309
S11311503709309338094093390950933A09AFBF9E
S11311600E940D0808952F923F924F925F926F92C2
S11311707F928F929F92AF92BF92CF92DF92EF9223
S1131180FF920F931F93CF93DF93CDB7DEB72997C9
S11311900FB6F894DEBF0FBECDBF6FB76983F89466
S11311A02090D0023090D1024090D2025090D302CD
S11311B06624772488241EE4A12EB3E8BB2ECC2415
S11311C0DD24EE24FF2400E010E0222D332D442DF5
S11311D0552D662D772D882D90E00E9473322A8339
S11311E03B834C835D836E837F8388879987822EBC
S11311F0932EA42EB52E2401350100E20E947133F2
S1131200A22EB32EC42ED52EA30192015695479536
S1131210379527952A0D3B1D4C1D5D1D57FF05C0B5
S11312205F772F5F3F4F4F4F5F4F2093D002309334
S1131230D1024093D2025093D302E9818E2F992791
S11312408FBFCA01B90129960FB6F894DEBF0FBE4D
S1131250CDBFDF91CF911F910F91FF90EF90DF9061
S1131260CF90BF90AF909F908F907F906F905F9042
S11312704F903F902F900895AC01EFB7F8942091D0
S1131280840030918500C901841B950B0396861751
S1131290970720F0B9016D5F7F4F02C0640F751F7F
S11312A06115710511F461E070E061507040709354
S11312B089006093880082E086BB80916F00826021
S11312C080936F008E2F99278FBF0895EF92FF921E
S11312D00F931F937C018FB7F894992700915805B9
S11312E0109159050F5E1E4F109359050093580530
S11312F0015111408FBF87E00E94B601C801B701B8
S11313000E94F4338A5D9E4F1F910F91FF90EF90DE
S11313100895FC0187819927982F882726813327F0
S1131320822B932B08950E948909AC018FB7F894FE
S1131330992720910202309103028FBF421753076D
S113134029F080E090E04F5F5F4F11F481E090E07E
S1131350992708958FB7F894992722B134E0232769
S113136022B98FBF0895FC0185819927982F88277A
S113137024813327822B932B0895882319F08CB56D
S1131380806802C08CB58F778CBD08950F931F932E
S113139080E00E9405060FB7F8941127229A23983B
S11313A0219A209A8CB580618CBD80E00E94BD0991
S11313B08CB5877F8CBD8CB58B7F8CBD81E00E9402
S11313C005068DB581608DBD8CB58C7F8CBD0FBF3E
S11313D01F910F910895FB01EE57FF4F21E030E07C
S11313E002C0220F331F8A95E2F78081822B80830B
S11313F00895CF92DF92EF92FF920F931F938C0187
S11314006A017B01BC0181E00E94EB0902581F4F75
S1131410F801C082D182E282F3821F910F91FF9082
S1131420EF90DF90CF9008958FB7F894209109043E
S113143030910A0440910B0450910C04E091840013
S1131440F0918500B09B08C02F5F3F4F4F4F5F4F17
S1131450E0918400F091850099278FBFC901772717
S113146066279F0144275527622B732B842B952BCA
S11314700895FC0182819927982F88272181332799
S1131480822B932B75E0969587957A95E1F7817079
S11314909070089520E030E0FC01818187708230F3
S11314A011F421E030E0C9010895CF93DF93EC01FA
S11314B00E94390A8823D1F0CE010E943D07882377
S11314C0A9F0CE010E9489092FB7F89433274091DF
S11314D00202509103022FBF20E08417950709F000
S11314E021E081E02827822F992702C080E090E044
S11314F0DF91CF910895FB01EE57FF4F21E030E0DB
S113150002C0220F331F8A95E2F780818223992734
S11315100895FC0181859927982F882720853327F2
S1131520822B932B08958091B902823031F481E0AB
S11315308093B90285E00E94B60108951F920F922C
S11315400FB60F9211248F938091B0008093B00056
S11315508091B60081FDFCCF8F910F900FBE0F904C
S11315601F9018951F920F920FB60F9211240F938C
S11315701F932F933F934F935F936F937F938F9317
S11315809F93AF93BF93CF93DF93EF93FF932EB5C6
S1131590E0914305F0914405309739F080910504BA
S11315A090910604E80FF91F20838091050490911F
S11315B006040196909306048093050480E00E943B
S11315C0BD09C0910504D0910604209151023091C7
S11315D05202C217D30708F042C00091CC0A1091FE
S11315E0CD0A4091430550914405CE010A9628172F
S11315F0390708F4C901DA01AC0FBD1FF801EC0F7B
S1131600FD1F9C012150304015C00115110531F01A
S113161080818EBD0DB407FEFDCF04C01EBC0DB489
S113162007FEFDCF8EB54115510509F08C93219627
S113163011963196C217D30740F381E00E94BD0989
S11316400115110531F00C0F1D1FF80180818EBDAD
S113165001C01EBCD0930604C093050411C01092AF
S11316604405109243051092CD0A1092CC0A1092B0
S113167052021092510210920604109205048EB583
S1131680FF91EF91DF91CF91BF91AF919F918F9196
S11316907F916F915F914F913F912F911F910F9186
S11316A00F900FBE0F901F90189578941F920F9271
S11316B00FB60F9211240F900FBE0F901F90189524
S11316C078941F920F920FB60F9211240F900FBEB1
S11316D00F901F90189578941F920F920FB60F9247
S11316E011242F933F938F939F93AF93BF932FB75F
S11316F0F89433278091090490910A04A0910B0473
S1131700B0910C040196A11DB11D8093090490931E
S11317100A04A0930B04B0930C042FBFBF91AF91A4
S11317209F918F913F912F910F900FBE0F901F901B
S11317301895E8E1F1E06927660FF11DE60FF11D48
S1131740C895982F802D3196C89590250895982F87
S113175080913602882389F5992379F531E0309315
S1131760360280910B028093370220912B02822F44
S11317708170809372028091100290911102909373
S113178039028093380280912C0280933A023227E6
S11317903170267EE32FFF27EE0FFF1FE45FFD4F1E
S11317A0808191819093110280931002232B2093C6
S11317B02B0282E10E94B601089580912B0280FFE2
S11317C002C08B7F01C08D7F80932B0208950F93FD
S11317D01F93082F162F8091BC028130D9F08130DD
S11317E038F0823009F44AC0833009F028C159C066
S11317F0002309F458C110928808109287081092A7
S11318005D0510929D081092C40210920F0410926C
S11318100E0439C1002309F046C180910E04909151
S11318200F040E94990B90930F0480930E0482E09E
S11318308093BC0210939D08143409F000C125C1A3
S11318408695869503C080912B028695817009F058
S1131850F6C080912B02992311F0846001C082604C
S113186080932B0280912B02877E886080932B02C9
S113187010922C028FEF80930B0215C1002309F004
S1131880DEC06093C40280910E0490910F040E9404
S1131890990B90930F0480930E0483E08093BC0211
S11318A002C180915D058F3F09F4C9C0002309F48A
S11318B061C0823008F4C3C0E0918708EE2309F4C4
S11318C0EBC04E2F4150E42FFF27E957F74F828199
S11318D09927382F2227442311F4E2E002C0E42F91
S11318E0E150FF27E957F74F82819927282B392B9D
S11318F080910E0490910F042817390709F09FC0B6
S113190080E00E94A70B3091C4028091FD032091D6
S1131910FE03982F9F5F963008F090E0921771F0C5
S1131920E82FFF27E350FC4F32838F5F8093FD0342
S1131930863010F01092FD030E9409051092880869
S11319401092870894E09093BC0210925D05109267
S11319509D081092C40210920F0410920E048091FC
S11319603B028D7F80933B0280912A02882309F4F5
S11319709AC084C0823008F44EC0E0918808FF27E2
S1131980E957F74F8281482F5527342F20912B0296
S1131990822F869586958695837099278130910547
S11319A019F00297F9F40EC0277E206120932B02D0
S11319B0442311F485E001C080E080932C0230932D
S11319C00B0210C080912C02853860F4E091100263
S11319D0F0911102E80FF11D408380912C028F5F7A
S11319E080932C0280918808E82FFF27E957F74F4E
S11319F062818F5F80938808833010F0109288088A
S1131A00772780910E0490910F040E94990B909374
S1131A100F0480930E0480918708E82FFF27E9576D
S1131A20F74F12838F5F80938708833010F01092F2
S1131A30870880915D058F5F80935D0534C01092A7
S1131A4088081092870814E01093BC0210925D0578
S1131A5010929D081092C40210920F0410920E046A
S1131A6080913B028D7F80933B0281E00E94A70B13
S1131A7080912A02882329F01093BC020E94A204B8
S1131A8012C0002381F081E009CF80912B02982FAE
S1131A90917080FDD5CED7CE80918B089927382FB1
S1131AA0222742E01CCF1F910F9108951F920F929D
S1131AB00FB60F9211242F933F934F935F936F931D
S1131AC07F938F939F93AF93BF93EF93FF938091F3
S1131AD0C00087FF42C06091C600E0911004F091FD
S1131AE01104309719F18091D10A9091D20AE80F2C
S1131AF0F91F608301969093D20A8093D10A2091B2
S1131B00E50A3091E60A8217930738F1109211041E
S1131B101092100480914D058330F9F08091C1003A
S1131B208F778093C10010924D0517C06E3719F45A
S1131B3060E081E010C080913B026D3721F4826047
S1131B4080933B020AC081FF05C08D7F80933B02D6
S1131B5080E2682780E00E94E70BFF91EF91BF913C
S1131B60AF919F918F917F916F915F914F913F9131
S1131B702F910F900FBE0F901F901895982F8D578F
S1131B80823068F480913B02816080933B0280E262
S1131B90892780935A058DE78093A50202C090930C
S1131BA0A50261E070E085EA92E00E94C0049927F2
S1131BB0089578941F920F920FB60F921124FF92FA
S1131BC00F931F932F933F934F935F936F937F9341
S1131BD08F939F93AF93BF93CF93DF93EF93FF9331
S1131BE02091C1023091C20280918F089091900897
S1131BF02817390780F4E091E202F091E302E20F42
S1131C00F31F80812F5F3F4F3093C2022093C102A4
S1131C100E94B404D1C01092E3021092E202109226
S1131C20C3028091C1008F7B8093C100FFB6F894FA
S1131C3080913B0280FF0EC08E7F80933B02809197
S1131C405A058093A50261E070E085EA92E00E9463
S1131C50C004AFC080914F05843009F48CC0853036
S1131C6040F4823021F18330B8F5813009F09CC012
S1131C700DC0863009F48DC0863008F483C08730E7
S1131C8009F48EC0883009F08FC091C08091E002C1
S1131C900E94BE0D082F83E080934F056091E002FF
S1131CA08091E30A9091E40A0E94990B10C08091FC
S1131CB02E090E94BE0D082F83E080934F0560918A
S1131CC02E098091E30A9091E40A0E94990B909363
S1131CD0E40A8093E30A66C0E0911304FF27EE0F41
S1131CE0FF1FEA51FD4F80810E94BE0D082F109105
S1131CF01304C12FDD27FE01EE0FFF1FEA51FD4F34
S1131D0060818091E30A9091E40A0E94990B909378
S1131D10E40A8093E30A2091DA022F5F2093DA0227
S1131D20113039F580913202E0912D02F0912E02AA
S1131D30E80FF11DE0818F5F8093320290913102B0
S1131D40981730F482E08093E70240E050E002C04C
S1131D504E2F5527DE01AA0FBB1FFD01EB51FD4F8E
S1131D608081823031F02F3F21F0AA51BD4F4C9336
S1131D7019C084E012C08091E30A0E94BE0D082FAE
S1131D8085E00BC08091E40A0E94BE0D082F86E016
S1131D9004C00E94F504082F87E080934F0502C019
S1131DA088E003C0002329F089E080934F050E9456
S1131DB009058F2D99278FBFFF91EF91DF91CF9167
S1131DC0BF91AF919F918F917F916F915F914F914F
S1131DD03F912F911F910F91FF900F900FBE0F9085
S1131DE01F9018951F920F920FB60F9211248F9384
S1131DF08091C80087FF02C08091CE008F910F9020
S1131E000FBE0F901F90189578941F920F920FB6E3
S1131E100F9211240F900FBE0F901F901895789475
S1131E201F920F920FB60F9211240F900FBE0F90B6
S1131E301F90189578941F920F920FB60F92112449
S1131E400F900FBE0F901F90189578941F920F92C9
S1131E500FB60F9211240F900FBE0F901F9018957C
S1131E6078941F920F920FB60F9211248F939F9321
S1131E7080919600909197009F918F910F900FBE43
S1131E800F901F90189578941F920F920FB60F928F
S1131E9011242F933F938F939F932FB7F894332755
S1131EA08091D6029091D70201969093D7028093A5
S1131EB0D6022FBF9F918F913F912F910F900FBE0C
S1131EC00F901F9018951F920F920FB60F92112426
S1131ED00F900FBE0F901F9018951F920F920FB680
S1131EE00F9211240F900FBE0F901F9018951F9200
S1131EF00F920FB60F9211240F900FBE0F901F90E8
S1131F0018951F920F920FB60F9211240F900FBEC7
S1131F100F901F9018951F920F920FB60F921124D5
S1131F200F900FBE0F901F9018951F920F920FB62F
S1131F300F9211240F900FBE0F901F9018951F92AF
S1131F400F920FB60F9211240F900FBE0F901F9097
S1131F5018951F920F920FB60F9211242F933F934F
S1131F604F935F936F937F938F939F93AF93BF939D
S1131F70EF93FF93EF9883E10E94B601FF91EF91F5
S1131F80BF91AF919F918F917F916F915F914F918D
S1131F903F912F910F900FBE0F901F901895AF9205
S1131FA0BF92CF92DF92EF92FF921F93CF93DF9372
S1131FB06C01EB015A01CA010E942D07182FE82E6B
S1131FC0FF24A7014F5F5F4F60E070E0CE010E94E5
S1131FD085351883DE01AE0DBF1D20E030E0A7017A
S1131FE0415050400DC0F6018081E82FFF27E21BCD
S1131FF0F30BEC0DFD1D80818C932F5F3F4F1197E8
S11320002417350781F760E070E0A5014770507030
S113201020C0D601EC91FF27EE19FF09EC0DFD1D40
S1132020818199279B012770307002C0959587950F
S11320302A95E2F7817090709B012770307002C07E
S1132040880F991F2A95E2F72981280F29836F5F4A
S11320507F4F64177507E8F2DF91CF911F91FF90CE
S1132060EF90DF90CF90BF90AF9008958F929F92A2
S1132070AF92BF92CF92DF92FF920F931F93CF93B1
S1132080DF935C016B01EA010E9401074C018C1A89
S11320909D0AC4010E942D07F82E082F1127A801BC
S11320A04F5F5F4F60E070E0C6010E948535F60126
S11320B0F08240E050E0B80133C0CA0103E09695D5
S11320C087950A95E1F7DB01A81BB90BAC0DBD1D83
S11320D0F5018081E82FFF27CE0113E096958795BF
S11320E01A95E1F7E81BF90BEA0DFB1D808199278E
S11320F09E012770307002C0959587952A95E2F766
S1132100817090709A012770307002C0880F991FF7
S11321102A95E2F72C91280F2C934F5F5F4F21965D
S11321204815590551F6DF91CF911F910F91FF90FA
S1132130DF90CF90BF90AF909F908F900895DF92E3
S1132140EF92FF920F931F938C0184E0F801819327
S11321507F01872F9927AA27BB27F8018183CB0109
S1132160AA27BB278283BB27A72F962F852F83837C
S11321704483C8010E9401070E942D07D82E482FCE
S11321805527F8018081B801680F711D641B750B18
S11321906F5F7F4FC7010E947C35F801D0821F9189
S11321A00F91FF90EF90DF9008952F923F924F92FE
S11321B05F926F927F928F929F92AF92BF92CF92D3
S11321C0DF92EF92FF920F931F93CF93DF93CDB7DC
S11321D0DEB72C970FB6F894DEBF0FBECDBF2C012F
S11321E03B017A01122F0E9401075C01C3010E9486
S11321F001074C01A501A3E056954795AA95E1F77F
S113220020E030E0C50187709070892B11F021E047
S113221030E0420F531F58874F83A401F3E05695D3
S11322204795FA95E1F720E030E0C401877090709B
S1132230892B11F021E030E0420F531F5E834D8360
S1132240F2019081F3018081F1E0AF16B10449F508
S113225021E08216910449F4112309F049C3F701DE
S11322601182108281E080831AC0282E33242D81AC
S11322703E81221A330A32E08316910409F04BC0DE
S1132280260C371CF1018181823059F5112309F0A4
S11322902FC3F7011182108281E0808383E0818360
S11322A02EC3F1E08F16910409F0D2C0292E3324F5
S11322B02F813885221A330A32E0A316B10409F0BB
S11322C06EC0240C351CF10191819230B9F41123B4
S11322D009F00EC3F7011182108281E0808391839B
S11322E00EC3833009F004C3112309F001C3F701BD
S11322F01182108281E0808387E0D1CF933009F08E
S1132300F7C2112309F0F4C2F7011182108281E0AF
S1132310808386E0C4CFF7E08F16910408F498C058
S1132320112309F095C084010B5F1F4FE7E0CE2E07
S1132330D12CC022D12280E090E0C114D10411F04C
S113234081E090E073E0169507957A95E1F70F5FC9
S11323501F4F080F191FA80160E070E0C7010E9419
S11323608535802F8150F7018083A301420D531DD1
S1132370D8012D813E81A21BB30BAE0DBF1D21E000
S113238030E005C0FA0180818D932F5F3F4F4F5F8E
S11323905F4F8D819E8182179307A0F743C0F7E0BA
S11323A0AF16B10408F454C0112309F051C08501DB
S11323B00A5F1F4F67E0C62ED12CC022D12280E0D5
S11323C090E0C114D10411F081E090E053E016953F
S11323D007955A95E1F70F5F1F4F080F191FA801C2
S11323E060E070E0C7010E948535802F8150F701BD
S11323F08083A201420D531DD8012F813885A21B71
S1132400B30BAE0DBF1D21E030E005C0FA018081A1
S11324108D932F5F3F4F4F5F5F4F8F81988582175A
S11324209307A0F7D7011196F7014181C114D10494
S113243011F480E80AC00894C108D10881E090E052
S113244002C0880F991FCA94E2F7480F4C9357C2F1
S113245064018A149B0408F4650195018A149B04A1
S113246008F49401C601969587952817390708F052
S11324707EC1112309F07BC1C60196958795969577
S11324808795282FA601437050705A874987452B9A
S113249039F49927880F991F01979C878B8714C05B
S11324A0E985FA85329749F4482F5527440F551F7B
S11324B04F5F5F4F5C874B8707C03327220F331F63
S11324C02F5F3F4F3C872B878A149B0498F580E24B
S11324D090E00E9480349A83898380E290E00E9495
S11324E080341C014B855C8569817A81C2010E941C
S11324F036104B855C85B101C2010E94CF0FF301F8
S11325008081992701960E9480344C0180E290E0FA
S11325100E9480346C01F301408155274F5F5F4F67
S1132520B301C4010E947C3521E0A601B401898174
S11325309A812FC080E290E00E9480349A8389833C
S113254080E290E00E9480341C014B855C856981A7
S11325507A81C3010E9436104B855C85B101C301A9
S11325600E94CF0F80E290E00E9480344C01F2017F
S1132570408155274F5F5F4FB2010E947C3580E256
S113258090E00E9480346C0121E0AC0169817A8181
S1132590C4010E94D510C6010E9401073C018B852D
S11325A09C85860D971D0E942D07182FA82EBB24ED
S11325B0A5014F5F5F4F60E070E0C7010E94853561
S11325C0F70110838B859C850E942D07482F552782
S11325D0D701AA0DBB1D20E030E00DC0F1018081C0
S11325E0E82FFF27E21BF30BE20DF31D80818C9390
S11325F02F5F3F4F11972417350781F740E050E0D4
S11326003AC08B859C8503E0969587950A95E1F7FA
S1132610D501A81BB90BAE0DBF1DF6018081E82FB3
S1132620FF27CA0113E0969587951A95E1F7E81BF1
S1132630F90BEC0DFD1D808199279A0127703070EC
S113264002C0959587952A95E2F7817090702B8545
S11326503C852770307002C0880F991F2A95E2F7D5
S11326602C91280F2C934F5F5F4F2B853C852F5F58
S11326703F4F3C872B874615570519F649855A85E0
S11326804130510509F065C0C7010E9401078C0162
S1132690B2E06B2E712C680E791EC3010E942D07C7
S11326A0A82E077010700115110519F407E010E049
S11326B002C001501040B7016F5F7F4FF701B18036
S11326C02A2D33272701420E531ED901A7010CC01E
S11326D0E40FF51F8081F201808321503040415086
S11326E05040089441085108F7018081E82FFF27E2
S11326F0CD018E1B9F0B8217930750F3FB011082B1
S1132700F7018081A81BB109AE0DBF1D21E030E0A7
S1132710C90102C0880F991F0A95E2F78095B82273
S1132720FD01B182FB014081830107701070011526
S1132730110511F480E808C00150104002C0220FB6
S1132740331F0A95E2F7822F480FFB014083F701FC
S1132750A08289819A810E942635C1010E94263572
S1132760C4010E942635C6010E942635C8C08601D0
S1132770000F111F98012F5F3F4F3C832B8327705D
S113278030703C872B874B815C81F3E056954795ED
S1132790FA95E1F780E090E0232B11F081E090E0DE
S11327A01A01280E391EA1014F5F5F4F60E070E0EF
S11327B0C7010E948535F70120822B853C85232B98
S11327C011F480E80EC04B855C85415050405C8715
S11327D04B8781E090E00B8402C0880F991F0A9414
S11327E0E2F7F7018183A1E0B0E07BC01197BD015E
S11327F07695679511969601261B370BC90187704C
S11328009070009711F440E808C0019741E050E04F
S113281002C0440F551F8A95E2F7A0FF1BC09D011B
S113282036952795C6018A199B092817390708F494
S113283055C0C601821B930B019763E0969587955B
S11328406A95E1F7EF81F885E81BF90BCF01840D58
S1132850951D14C0C601881999096817790708F4E9
S11328603DC02150304053E0369527955A95E1F705
S11328708D819E81821B930B860D971DFC018081A7
S1132880482361F1980127703070C80143E09695A0
S113289087954A95E1F7F101E81BF90B80E090E098
S11328A02115310511F081E090E0E81BF90BEE0DE4
S11328B0FF1DAF014F5F5F4F61812115310511F499
S11328C080E809C02150304081E090E002C0880FC8
S11328D0991F2A95E2F7680FFA0160831196015057
S11328E010402B813C81A217B30708F47FCF07C0A7
S11328F064018A149B0408F03ACF650138CF2C9602
S11329000FB6F894DEBF0FBECDBFDF91CF911F91FC
S11329100F91FF90EF90DF90CF90BF90AF909F907A
S11329208F907F906F905F904F903F902F9008957D
S11329301F920F920FB60F9211242F933F934F9330
S11329405F936F937F938F939F93AF93BF93EF9313
S1132950FF938091B0008093B0008091B60081FD18
S1132960FCCF8091B30099270196AA27BB27209119
S11329707602309177024091780250917902280FC3
S1132980391F4A1F5B1F20937602309377024093CE
S113299078025093790278940E940D08FF91EF9188
S11329A0BF91AF919F918F917F916F915F914F9163
S11329B03F912F910F900FBE0F901F90189521E01B
S11329C02093E402209348052091840030918500EF
S11329D0BC01C9010E943C0908951F93982F8FB729
S11329E0F894182F809140028330D1F5809115021C
S11329F08917B1F58091130220E030E08F3F11F484
S1132A0021E030E0232BE9F48F3F19F42FEF30E07D
S1132A100EC0282F3327F901EC5CF64F8081809398
S1132A2013028F3F11F4809314028FEF808320935D
S1132A30EF068FEF8093150281E08093400285E1D9
S1132A4009C082E0809315021092400281E08093D5
S1132A50410287E10E94B6011FBF80E090E003C0FD
S1132A601FBF81E090E01F91089581E00E94ED1462
S1132A709927089580E00E94ED1499270895CF9333
S1132A80DF938FB7F894C82FDD279C2F8091200205
S1132A908230A9F480914802813021F483E20E94BB
S1132AA0B60109C0823059F4809114048093200245
S1132AB083E080934802CFBF80E090E003C09FBFD3
S1132AC081E090E0DF91CF9108950E947F038823F5
S1132AD011F00E943F1508951F93982F1FB7F89483
S1132AE080912802823099F580910702891779F53F
S1132AF08091050220E030E08F3F11F421E030E0C6
S1132B00232BF1F49FEF909307028F3F19F42FEFDB
S1132B1030E00DC0282F3327F901ED54FD4F80819B
S1132B20809305028F3F11F49093060290832093C3
S1132B30AA0281E08093280283E00E94B60105C0C6
S1132B408FEF809307021092280221E001C020E059
S1132B50812F99278FBF90E0213009F491E081E023
S1132B609827892F99271F91089580E00E946C155A
S1132B70992708951F93982F8FB7F894182F809151
S1132B8043028330B1F580911802891791F5809141
S1132B90160220E030E08F3F11F421E030E0232BD7
S1132BA0F9F48F3F19F42FEF30E00EC0282F3327AC
S1132BB0F901E954FD4F8081809316028F3F11F48F
S1132BC0809317028FEF80832093C8028FEF809346
S1132BD0180281E08093430288E10E94B60105C097
S1132BE082E080931802109243021FBF80E090E0BD
S1132BF003C01FBF81E090E01F9108951F93982F99
S1132C008FB7F894182F80914402833009F048C09C
S1132C1080911B02891709F043C08091190220E0BA
S1132C2030E08F3F11F421E030E0232BF9F48F3FA3
S1132C3019F42FEF30E00EC0282F3327F901E259A1
S1132C40FD4F8081809319028F3F11F480931A0203
S1132C508FEF80832093A4028FEF80931B0281E087
S1132C60809344028BE10E94B60116C084E08093F5
S1132C701B021092440280914502813069F40E9443
S1132C804802809147058A76809347058093BC006B
S1132C9058985998109245021FBF80E090E003C0F5
S1132CA01FBF81E090E01F910895982F81508830D4
S1132CB018F082E090E0089580913B09882319F090
S1132CC085E090E0089581E080933B09809354026D
S1132CD090935405892F9927019721E030E002C091
S1132CE0220F331F8A95E2F78091DD02822B8093B5
S1132CF0DD0280E00E94510280E090E008950F938D
S1132D001F93CF93DF93182F0FB7F8948091290264
S1132D10882311F40E94C609802F99278FBF8FB78B
S1132D20F894C82FDD272C2F80912902882361F481
S1132D3081E0809329021093E1028CE00E94B601A5
S1132D40CFBF80E090E021C0E12FFF27E252FD4F8A
S1132D5080818F3F89F4E0910902E11789F40CC066
S1132D601093080204C0FF27E252FD4F1083109312
S1132D70090280E090E002C085E090E02FBF05C02A
S1132D80809108028F3F79F7EBCFDF91CF911F91AC
S1132D900F9108958FB7F894282F3327922F80919D
S1132DA00A02882331F480912902823011F42FBF62
S1132DB013C09FBF8FB7F894282F3327809129021F
S1132DC0882369F482E08093290210920A022FBFBB
S1132DD00E94C609209A289A81E090E008952FBFA6
S1132DE080E00E947F1680E090E00895982F815043
S1132DF0883018F082E090E008958091BD02882325
S1132E0019F085E090E0089581E08093BD028093FD
S1132E106F039093F606892F9927019721E030E0FC
S1132E2002C0220F331F8A95E2F78091D50A8227C8
S1132E308093D50A81E00E94510280E090E00895D9
S1132E4080914202813029F480933F0280E00E9405
S1132E50EC018FB7F8949927109242021092410224
S1132E608FBF08951F93182F882321F484E00E94B4
S1132E70F61608C010923F0280E00E94BA15812F16
S1132E800E9420171F91089580914A02813021F4F5
S1132E90809347020E94EC018FB7F894992710920F
S1132EA04A02109249028FBF089580933C098823F7
S1132EB011F484E001C081E08093B90285E00E94AE
S1132EC0B6010895FC018FE3828780914C028F5FE5
S1132ED080934C0283838091B902882311F085E0AA
S1132EE00DC0F0935105E093500581E08093B90241
S1132EF010924C0585E00E94B60180E09927089560
S1132F00EF92FF920F931F93CF93DF93082F7B01D0
S1132F10EA01122F233718F086E090E079C0CA0145
S1132F200E943D07882319F4CE010E945107135FC4
S1132F3018832FB7F89433278091020290910302EB
S1132F402FBF8887892F992789872FB7F89433272C
S1132F50809104022FBF99278C831D820B87EE82F8
S1132F608F2D99278F838FB7F894282F332780913B
S1132F702802882371F482E08093280210920702C9
S1132F802FBFCE010E9462179927182F882399F02A
S1132F900FC02FBFD093AC02C093AB028FB7F8948D
S1132FA0C82FDD272C2F80912802882399F406C08E
S1132FB080E00E946C15812F99272AC081E08093BC
S1132FC028021092AA0283E00E94B601CFBF80E0DB
S1132FD090E01EC08091B3028F3F89F4E091060215
S1132FE0EE2369F010C01092050204C0FF27ED54CF
S1132FF0FD4F10821092060280E090E002C085E04E
S113300090E02FBF05C0809105028F3F79F7EBCF89
S1133010DF91CF911F910F91FF90EF900895EF9260
S1133020FF920F931F93CF93DF938FB7F894992751
S113303020913702C0913802D0913902F090720287
S11330408FBF2223A1F5EFB6F89480916402882300
S113305039F580915002E82FFF27EE0FFF1FE9504A
S1133060FC4F00811181D183C0838F5F8093500214
S1133070833010F010925002909150028091EC0A2B
S1133080981719F481E08093640280915702882391
S113309051F481E00E94B60181E08093570203C09D
S11330A00E9499048E018E2D99278FBFE8018FB756
S11330B0F894EF2DFF27EE0FFF1FE45FFD4FD18340
S11330C0C08320912B02FF2011F02B7F01C02D7FA4
S11330D020932B021092360299278FBFDF91CF9154
S11330E01F910F91FF90EF9008958FB7F89499274F
S11330F0209114042093200223E0209348028FBFE0
S113310080912002882319F0813081F518C083E46E
S11331108093BE0283E00E945102882339F180E04B
S11331200E94D0028091C9029091CA029093CF026A
S11331308093CE021092CA021092C902089583E8C5
S11331408093BE0283E00E945102882379F081E0DB
S11331500E94D0028091BF029091C00290935305C7
S1133160809352051092C0021092BF02089580917C
S1133170BE02833481F480E00E94D0028091C902AF
S11331809091CA029093CF028093CE021092CA0209
S11331901092C902089581E00E94D0028091BF027A
S11331A09091C00290935305809352051092C002EF
S11331B01092BF0208951F9310919C088091BE0243
S11331C01F77833491F480E00E94D0028091C90279
S11331D09091CA029093CF028093CE02812F9927B7
S11331E09093CA028093C90211C081E00E94D00268
S11331F08091BF029091C002909353058093520531
S1133200812F99279093C0028093BF021F91089544
S1133210AC01662319F00E94990420C03FB7F894CA
S11332202091EC0AE22FFF27EE0FFF1FE950FC4F1D
S1133230808191814817590771F4822F8F5F8093A1
S1133240EC0A833010F01092EC0A80916402882317
S113325011F010926402832F99278FBF81E00E949E
S1133260B60108953F924F925F926F927F928F9230
S11332709F92AF92BF92CF92DF92EF92FF920F9301
S11332801F93CF93DF93EC0180914F02882309F0C1
S113329081C18091CE0A853009F07CC10E94CA1692
S11332A0882309F477C180918C08882309F072C1BE
S11332B0BE0182E00E947B0A882311F49FE006C0CD
S11332C0CD57DF4F9981C358D0409F7080916E03D2
S11332D0981781F090936E03289885EC8EBD0DB4F9
S11332E007FEFDCF8EB590689EBD0DB407FEFDCFE1
S11332F08EB5289ACE010E943D07882301F12898B3
S113330086E88EBD0DB407FEFDCF8EB51EBC0DB490
S113331007FEFDCF8EB5289A99278F719070209162
S1133320D5024091B402240F312D311D43E035956F
S113333027954A95E1F7281739070CF42BC12898EB
S113334082EC8EBD0DB407FEFDCF8EB589E08EBD37
S11333500DB407FEFDCF8EB5289A0E94140A7B0196
S11333608C01BE0184E00E947B0A882319F4E0E00A
S1133370F0E005C088818550FE01E80FF11D289812
S113338081E88EBD0DB407FEFDCF8EB51EBC0DB415
S113339007FEFDCF8EB5289A8F71893079F0289871
S11333A082EC8EBD0DB407FEFDCF8EB586E08EBDDA
S11333B00DB407FEFDCF8EB5289AECC08FB7F894F4
S11333C099272F9A20918400309185008FBF2F98E0
S11333D0289880E68EBD98810DB407FEFDCF8EB58A
S11333E09EBD8EEF382E390E86E0831510F0632DC6
S11333F001C067E0AE014F5F5F4FDA01962F7D9108
S11334000DB407FEFDCF8EB57EBD9150C1F761505E
S11334102A01460E511C6F5F0894411C511C2E1941
S11334203F092E553F4F3901882477FC8094982C0E
S11334306E0C7F1C801E911E309719F4932D961BE1
S113344045C02081E1808281A3809927AA27BB27D8
S1133450BA2FA92F982F8827332744275527522F6F
S1133460442733272227FF24002711278701FF241D
S1133470EE242E293F29402B512BBB24CC24DD24C0
S11334802A293B294C295D29822B932BA42BB52B6C
S113349086199709A809B9098383292F3A2F4B2F35
S11334A0552722839D014427552721838B2F992754
S11334B0AA27BB278083C2CFD2012C910DB407FE6B
S11334C0FDCF0894411C511C8EB52EBD9150A0F720
S11334D00DB407FEFDCF8EB5289A289882EC8EBDD8
S11334E00DB407FEFDCF8EB586E08EBD0DB407FE8C
S11334F0FDCF8EB5289A3097D1F12081E180828169
S1133500A3809927AA27BB27BA2FA92F982F8827EA
S1133510332744275527522F442733272227FF24B4
S1133520002711278701FF24EE242E293F29402B51
S1133530512BBB24CC24DD242A293B294C295D2989
S1133540822B932BA42BB52B860D971DA81DB91D7B
S11335508383292F3A2F4B2F552722839D014427FC
S1133560552721838B2F9927AA27BB278083BE0148
S113357081E00E94EB09C258DF4F688279828A8217
S11335809B8286E08093CE0A84E080934F0280E0A1
S113359090E002C085E090E0DF91CF911F910F9100
S11335A0FF90EF90DF90CF90BF90AF909F908F905F
S11335B07F906F905F904F903F9008952FB7F8944D
S11335C033278091E10280930A0282E080932902EA
S11335D02FBF80910A02882309F080C0209A289A7C
S11335E08091CE0A882309F076C08EEF91E001978E
S11335F001960197E1F716982F9886E090E00197DD
S113360001960197E1F7169A289883EC8EBD0DB4C4
S113361007FEFDCF8EB51EBC0DB407FEFDCF8EB5E3
S1133620289A289882EC8EBD0DB407FEFDCF8EB586
S113363088E08EBD0DB407FEFDCF8EB5289A8EEFBF
S113364091E0019701960197E1F728988EEC8EBDE1
S11336500DB407FEFDCF8EB58DE48EBD0DB407FE0F
S1133660FDCF8EB5289A289889EC8EBD0DB407FE3F
S1133670FDCF8EB587EC8EBD0DB407FEFDCF8EB5A4
S1133680289A289885EC8EBD0DB407FEFDCF8EB523
S11336908FE88EBD0DB407FEFDCF8EB5289A8FE05E
S11336A080936E0385E18093A902289888EC8EBDEF
S11336B00DB407FEFDCF8EB585E78EBD0DB407FEB4
S11336C0FDCF8EB5289A2F9A81E08093CE0A80E0B0
S11336D00E940E06089582E00E94B601089578942F
S11336E01F920F920FB60F9211242F933F934F9373
S11336F05F936F937F938F939F93AF93BF93EF9356
S1133700FF9380916F008D7F80936F0078949FB7B3
S1133710F89480914805813019F482E0809348053B
S1133720892F99278FBF82E00E94B601FF91EF9104
S1133730BF91AF919F918F917F916F915F914F91C5
S11337403F912F910F900FBE0F901F901895789472
S11337501F920F920FB60F9211242F933F934F9302
S11337605F936F937F938F939F93AF93BF93EF93E5
S1133770FF93E6E8F0E080819181208131818FB769
S1133780F89499273093D9022093D80221E020930A
S11337908C088FBF82E00E94B601FF91EF91BF9128
S11337A0AF919F918F917F916F915F914F913F91D5
S11337B02F910F900FBE0F901F9018951F93162FE7
S11337C0813019F0843091F409C01092470281E0ED
S11337D00E94BA15812F0E94441708C010923F021C
S11337E080E00E94BA15812F0E9420171F9108952E
S11337F01F93182F882321F488E00E941E0408C018
S113380010923F0280E00E94BA15812F0E94201777
S11338101F910895CF92DF92EF920F931F93CF934E
S1133820DF936C01EB01142F0E94AA09C6010E94C8
S11338308909AC018FB7F89499272091020230913D
S113384003028FBF4217530721F04F5F5F4F09F008
S113385064C0F60183858B3709F05FC0103109F02D
S11338605CC08881813009F058C08981893109F0B0
S113387054C08A81843209F050C08B818E3D09F096
S11338804CC08C85893E09F048C08D85873309F08A
S113389044C08E858C3909F040C08F85833009F08F
S11338A03CC08D81873561F488E190E028E00FB653
S11338B0F894A895809360000FBE20936000FFCF1A
S11338C08E818093CD028A852B859927182F002716
S11338D0020F111D1093DF0A0093DE0A888580937E
S11338E02909FE0139968985873779F480911D0469
S11338F081FD0BC00E943703AB01BC012227332793
S1133900EE2480E00E94180308C08081833329F4E8
S113391080911D048D7F80931D04C601DF91CF919A
S11339201F910F91EF90DF90CF900895AF92BF92C7
S1133930CF92DF92EF920F931F935B016C010E9471
S11339403703AB01BC01E1E0EE2E9601850182E074
S11339500E9418031F910F91EF90DF90CF90BF90BA
S1133960AF9008951F933B9A43986F98779AEF9876
S11339706F9A779A439880E0439A43988F5F89308F
S1133980D9F76F9A779A4398439A77984398439ACA
S1133990779A439880915802909159028F71907050
S11339A090935902809358020E9448040E9456043E
S11339B0882329F010923C0281E090E056C0809167
S11339C058029091590286309105D1F187309105C2
S11339D038F48330910571F0059709F044C018C09C
S11339E08730910509F14E97F1F56BE070E080E0C6
S11339F090E017C06F98779A80E00E9462048091EB
S1133A003D0280FD0AC06AE471E080E090E009C0F4
S1133A106F98779A80E00E9462046AEF70E080E019
S1133A2090E00E94961C1FC00E947E04182F0E94E2
S1133A307E040E94940410933D0284E10E94B60126
S1133A40809186080E9448040E945604882321F02D
S1133A5081E080933E0204C08091860880933D02F9
S1133A6084E10E94B60180E090E01F9108958FB731
S1133A70F89499272091EF062093150223E02093D0
S1133A8040028FBF20911502222321F0213009F03A
S1133A904DC027C080911202882399F080913C0286
S1133AA0882379F481E080933C0283E090E0909352
S1133AB05902809358021092D40A0E94B21C88239F
S1133AC0A9F180E00E94ED1480915605909157056C
S1133AD090935B0280935A021092570510925605F8
S1133AE0089580911202882391F080913C028823EA
S1133AF071F420933C0285E090E090935902809306
S1133B0058022093D40A0E94B21C882379F081E0E1
S1133B100E94ED1480915B0590915C05909346059D
S1133B208093450510925C0510925B0508950E94F0
S1133B309D0383E00E94FE1599270895882329F4A4
S1133B4082E00E945102882359F01092470281E0DA
S1133B500E94BA150E947F03882311F00E943F152A
S1133B600895EF920F931F93182F10923F0280E055
S1133B700E94BA15112371F40E943703AB01BC01F2
S1133B80F1E0EF2E0BE010E020E030E081E00E9455
S1133B90180306C00E94B003882311F00E94CE03CC
S1133BA01F910F91EF900895813019F0843041F402
S1133BB004C0862F0E949E1D0895862F0E94B11D69
S1133BC008958091BD028823A1F11092BD028091D5
S1133BD04B02882381F010924B028091F6068130CB
S1133BE019F0843041F404C081E00E949E1D03C09A
S1133BF081E00E94B11D80916F038823D1F010925F
S1133C006F038091F606813019F0843091F409C075
S1133C101092470281E00E94BA1581E00E94441785
S1133C20089510923F0280E00E94BA1581E00E943C
S1133C3020170895882321F488E00E9455160895DA
S1133C4010923F0280E00E94BA150E94B0038823BC
S1133C5011F00E94CE030895882321F484E00E9489
S1133C60F403089510923F0280E00E94BA150E9466
S1133C70B003882311F00E94CE03089580913B097C
S1133C80882351F110923B0980915402882381F0DA
S1133C901092540280915405873019F0883041F411
S1133CA004C081E00E941A1E03C081E00E942C1E01
S1133CB080913609882381F0109236098091540549
S1133CC0873019F0883041F404C081E00E94F81B69
S1133CD0089581E00E943217089580913B0988235A
S1133CE009F45AC010923B0980915402882341F18F
S1133CF010925402409154052091DD023327842F01
S1133D009927019702C0359527958A95E2F720FFF8
S1133D100AC0473021F0483009F03EC002C080E0BC
S1133D2008C080E00AC0473019F04830A9F504C043
S1133D3081E00E941A1E089581E00E942C1E0895BD
S1133D4080913609882341F1109236094091540537
S1133D502091DD023327842F9927019702C03595DE
S1133D6027958A95E2F720FD0BC0473019F04830BB
S1133D7099F402C080E00AC080E00E9432170895DE
S1133D80473019F0483041F404C081E00E94F81B28
S1133D90089581E00E94321708952F923F924F9226
S1133DA05F926F927F928F929F92AF92BF92CF92C7
S1133DB0DF92EF92FF920F931F93CF93DF93CDB7D0
S1133DC0DEB72A970FB6F894DEBF0FBECDBF4B0106
S1133DD05C01CC24DD24E5E1F4E0608561FF97C358
S1133DE02081318142815381E480F58006811781ED
S1133DF0D501C401821B930BA40BB50B8E159F0533
S1133E00A007B10708F483C360FF03C06D7F608718
S1133E1008C02E0D3F1D401F511F20833183428354
S1133E20538321E0C21609F425C3C21648F032E0D8
S1133E30C31609F427C383E0C81609F0DAC35FC3C5
S1133E4080912909813009F0D4C380E00E9464067E
S1133E5081E00E94640680E00E94A80681E00E943E
S1133E60A8068091A2089091A30801969093A308B4
S1133E708093A2088983892F99278A838091CD0210
S1133E80823109F4ADC28C3209F4AAC220915605DC
S1133E903091570580915A0290915B0282179307E3
S1133EA030F4281B390BC901880F991F05C0821BE8
S1133EB0930B880F991F019690935F0580935E057D
S1133EC0809156059091570590935B0280935A0216
S1133ED020915B0530915C058091450590914605E4
S1133EE08217930730F4281B390BC901880F991FD7
S1133EF005C0821B930B880F991F0196909331097B
S1133F0080933009C0905B05D0905C05D092460543
S1133F10C0924505E090C902F090CA02B7018091B1
S1133F20CE029091CF020E94EC069093740280938B
S1133F307302F092CF02E092CE020091BF02109180
S1133F40C002B80180915205909153050E94EC067D
S1133F5090934A05809349051093530500935205A5
S1133F602091A302222311F18091560590915705C7
S1133F70880F991F90935F0580935E05C601880F93
S1133F80991F9093310980933009C701880F991FB5
S1133F909093740280937302C801880F991F9093C1
S1133FA04A058093490521502093A30260914E0550
S1133FB077278091A2089091A3080E94F433892B5B
S1133FC0E1F48091560590915705880F991F9093BD
S1133FD05F0580935E05CC0CDD1CD0923109C09244
S1133FE03009EE0CFF1CF0927402E0927302000F91
S1133FF0111F10934A050093490540915E055091A5
S11340005F05662777278091E00A9091E10A0E9474
S11340109F1040913009509131096627772780918C
S1134020C5029091C6020E949F1040917302509164
S11340307402662777278091DB029091DC020E944C
S11340409F104091490550914A0566277727809132
S11340505C0290915D020E949F10E0917A02F091BF
S11340607B0280915E0590915F05938382838091AA
S113407030099091310995838483809173029091E2
S11340807402978386838091490590914A059187AC
S1134090808780910002909101028093AC08892F5F
S11340A099278093AD0888E38093A8081092A90803
S11340B08091CD02883371F54091F5035091F60358
S11340C06091C5027091C60220E08091E00A90914F
S11340D0E10A0E94D51040916C0250916D026091EA
S11340E05C0270915D0220E08091DB029091DC0221
S11340F00E94D510409155025091560260916C0275
S113410070916D0220E08091F5039091F6030E9476
S1134110D510AAC0893509F0CBC040905502509003
S113412056022081318138872F831F0181E090E07E
S11341309A878987662477248AC0F10182809380D4
S1134140F2E08F16910408F40FC2AEEFCA2EAFEF5F
S1134150DA2EC80CD91C22E0C216D10408F4E1C13D
S1134160FCEFCF2EFFEFDF2EC80CD91C34E0C316B2
S1134170D10408F4DCC1E8EFCE2EEFEFDE2EC80C3C
S1134180D91C88E0C816D10408F4D7C170EFC72E33
S11341907FEFD72EC80CD91C90E1C916D10408F4BE
S11341A0D2C184012227332740E050E002C04F5F90
S11341B05F4FD901C801042E04C0B695A795979501
S11341C087950A94D2F70097A105B10581F75A01A2
S11341D00894A108B1086DEFE62E6FEFF62EE40EF9
S11341E0F51E41E0C42ED12C86010E2C02C0000F16
S11341F0111F0A94E2F70250104022273327A70127
S1134200B301C2010E945D07A114B10499F00A2C04
S113421002C0CC0CDD1C0A94E2F78C189D086401E2
S1134220860122273327B3016E0D7F1DA501C2012C
S11342300E945D07EA0CFB1C6E0C7F1CE985FA8565
S11342403196FA87E98722E030E0220E331E898511
S11342509A85EF81F885E817F90708F06ECFC30156
S11342600E942D07F20180838A818093B00889819E
S11342708093B108E0915502F09156024081552790
S11342804F5F5F4FBF0182EB98E00E947C35E09165
S11342905502F091560220812D5F609100027091C9
S11342A00102615070407695679576956795D7C001
S11342B0823209F09EC140905502509056022081EE
S11342C031813C832B831F0181E090E09E838D83A9
S11342D0662477247CC0F10182809380F2E08F16FB
S11342E0910408F476C12EEFE22E2FEFF22EE80CA3
S11342F0F91C22E0E216F10408F446C19CEFE92E11
S11343009FEFF92EE80CF91C34E0E316F10408F4ED
S113431042C188EFE82E8FEFF82EE80CF91C88E0F4
S1134320E816F10408F43EC100EFE02E0FEFF02E82
S1134330E80CF91C90E1E916F10408F43AC184018F
S11343402227332740E050E002C04F5F5F4FD9017E
S1134350C801042E04C0B695A795979587950A942D
S1134360D2F70097A105B10581F75A010894A10875
S1134370B1086A0101E010E020E030E0B301C201BD
S11343800E945D07A114B104A9F081E090E00A2C19
S113439002C0880F991F0A94E2F77401E81AF90A17
S11343A0870122273327B3016C0D7D1DA501C201AE
S11343B00E945D07AC0CBD1C6A0C7B1CED81FE8168
S11343C03196FE83ED8322E030E0220E331E8D8190
S11343D09E81EB81FC81E817F90708F07CCF3FCF81
S11343E060910002709101026093AC08872F9927B5
S11343F08093AD0888E38093A8081092A9088A8165
S11344008093B00889818093B10888E08093B208D2
S113441080915605909157059093B4088093B30802
S113442080915B0590915C059093B6088093B508E4
S11344308091C9029091CA029093B8088093B708FA
S11344408091BF029091C0029093BA088093B908FA
S11344506150704076956795769567952BE044EAB0
S113446058E085E10E948017882309F0C2C00E94A9
S11344709904BFC00E94B003882309F4BAC00E9403
S1134480CE03B7C0809158029091590285309105AE
S113449001F18E31910521F0039709F0AAC003C000
S11344A010923C02A6C010923C028091D40A882348
S11344B009F09FC00E94ED14809156059091570514
S11344C090935B0280935A021092570510925605FE
S11344D090C010923C028091D40A813009F089C0C6
S11344E00E94ED1480915B0590915C0590934605C4
S11344F08093450510925C0510925B057AC00E947A
S11345007F03882309F475C00E943F1572C0089484
S1134510C11CD11C399624E0C216D10409F05DCC2B
S113452068C0A1E0AA2EB12C02E010E011C0F2E0B4
S1134530AF2EB12C03E010E00BC0E3E0AE2EB12CA3
S113454004E010E005C074E0A72EB12C05E010E0F3
S11345502227332743E050E0B301C2010E945D07E4
S113456063E0E62EF12C5CCE00E010E020E030E0C9
S113457042E050E0B301C2010E945D07AA24BB24BB
S113458052E0E52EF12C56CE41E0A42EB12C32E0BF
S1134590C32ED12C14C022E0A22EB12C93E0C92E3C
S11345A0D12C0DC083E0A82EB12C04E0C02ED12C58
S11345B006C014E0A12EB12CB5E0CB2ED12C01E025
S11345C010E020E030E0A601B301C2010E945D07C3
S11345D0E7CE01E010E020E030E041E050E0B3013C
S11345E0C2010E945D07AA24BB24A1E0CA2ED12CDB
S11345F0E1CE89E00E94B6012A960FB6F894DEBF98
S11346000FBECDBFDF91CF911F910F91FF90EF901F
S1134610DF90CF90BF90AF909F908F907F906F90DE
S11346205F904F903F902F900895AF92BF92CF929A
S1134630DF92EF92FF920F931F930E9437035B0167
S11346406C018FB7F89499271092C7028FBF0FEFB0
S1134650E02E0FEFF02E0FEF002F0FE7102F60E08A
S1134660E5E1F4E0808581FF1CC080819181A28115
S1134670B381A6019501281B390B4A0B5B0BDA01A8
S1134680C9012481358146815781281B390B4A0B86
S11346905B0B2E153F05400751071CF479018A0175
S11346A061E0399634E0E933F307E1F66623D9F0A3
S11346B01E141F04100611062CF0C601B5010E9439
S11346C0CD1E11C0E0929E08F0929F080093A008AE
S11346D01093A10881E08093A602A8019701C60166
S11346E0B5010E9499081F910F91FF90EF90DF9000
S11346F0CF90BF90AF9008958FB7F89499272091E9
S1134700C8022093180223E0209343028FBF8091B4
S11347101802882319F08130C9F51FC080913F0227
S1134720813031F487E00E945516882351F40895AE
S11347303B9843986F98779887E00E941E048823DB
S113474029F110923F0280E00E94BA150E94B00342
S11347508823E1F00E94CE030895809147028130BE
S113476029F40E94F403882331F4089581E00E941F
S1134770F616882359F01092470281E00E94BA1578
S11347800E947F03882311F00E943F1508951F9310
S1134790162F833061F40E949D0383E00E94FE156E
S11347A0112311F080E201C08FE10E94B6011F9134
S11347B00895FF920F931F93F62E813011F18130EB
S11347C030F08230A9F1833009F04EC041C08091AD
S11347D0CF0A9091D00A4817590709F045C02130F3
S11347E009F042C00D5D124009F03EC00E949D03D5
S11347F080E00E94FE15FF2011F489E133C08AE1B4
S113480031C080914D0290914E024817590761F5CD
S1134810213051F5055D1A4039F50E949D0381E070
S11348200E94FE15FF2011F48CE11CC08DE11AC01A
S11348301092470281E00E94BA150E949D0382E013
S11348400E94FE15FF2011F081E20CC082E20AC032
S1134850662339F00E949D0383E00E94FE1580E2E6
S113486001C08EE10E94B6011F910F91FF9008953F
S1134870FF920F931F93F82E0E94480280914705E0
S11348808A7F809347058093BC000E9448028091F0
S113489047058460809347058093BC0081E0809342
S11348A04502809146020091A7021091A80240910E
S11348B0CB025091CC02882341F0209153026F2DFA
S11348C080911C020E94C72307C0209153026F2DC0
S11348D080911C020E94D9231F910F91FF9008958B
S11348E01F920F920FB60F9211240F931F932F93C1
S11348F03F934F935F936F937F938F939F93AF9364
S1134900BF93EF93FF930E94480280914502843045
S113491009F4B3C0863021F0833009F0DBC019C03C
S11349209091B900987F80914602813041F490348F
S113493071F483E08093450220919B081FC0983155
S113494031F483E08093450290919B085CC084E03D
S1134950A9C08091460290919B08813009F053C010
S1134960E091A702F091A802E90FF11D8091BB002C
S1134970808320919B082F5F20939B089091530282
S11349802917A8F43327892F99270197281739075E
S113499049F48091E20A82FD05C0809147058F7B2E
S11349A080934705809147058093BC0093C0209174
S11349B04705322F3E7F309347058091E20A81FFFD
S11349C009C08D7F8093E20A30613093470580915E
S11349D0B90003C02E772093470580914705809343
S11349E0BC0081E0809345020091A7021091A802C7
S11349F04091CB025091CC02292F60E080911C029F
S1134A000E94C72367C02091530230914705921733
S1134A1068F4E091A702F091A802E90FF11D8081EA
S1134A208093BB009F5F90939B0852C0932F9E7FFF
S1134A30909347058091E20A81FF07C08D7F8093A0
S1134A40E20A90619093470503C03E77309347058F
S1134A50809147058093BC0081E0809345020091DA
S1134A60A7021091A8024091CB025091CC0260E0C1
S1134A7080911C020E94D9232DC08091E20A8E7F6E
S1134A808093E20A909147059F7D9093470580911A
S1134A90B900887F883049F08091B900887F8031DF
S1134AA021F081E00E94382415C0392F30643093FE
S1134AB047059091CB02990F20E080914602813006
S1134AC009F421E0922B9093BB0086E08093450289
S1134AD03093BC00FF91EF91BF91AF919F918F9163
S1134AE07F916F915F914F913F912F911F910F9102
S1134AF00F900FBE0F901F901895DF92EF92FF92C8
S1134B000F931F93E62ED22E9FB7F894292F3327A5
S1134B1090911C02981711F02FBF92C02FBF8FB72E
S1134B20F894282F332780914502813041F582E0A3
S1134B30809345022FBF8FB7F89499275093CC02E6
S1134B404093CB021093A8020093A702D092530281
S1134B506093E20A10929B08109246028FBF0E9453
S1134B6048028FB7F894F82E90914705916C9F7E78
S1134B70909347056E2D772760FD0BC011C08823E5
S1134B8021F42FBF84E090E065C02FBF85E090E062
S1134B9061C090629093470584E08093450253C0BE
S1134BA0DD2009F43FC083E08093450230919B08E7
S1134BB020915302321778F4E091A702F091A802F1
S1134BC0E30FF11D80818093BB003F5F30939B080E
S1134BD09093BC003CC0392F3E7F309347058091B1
S1134BE0E20A81FF07C08D7F8093E20A306130932F
S1134BF0470503C09E7790934705809147058093AE
S1134C00BC0081E0809345020091A7021091A802A4
S1134C104091CB025091CC0260E080911C020E9432
S1134C20D92315C061FF08C085E0809345029F7BAE
S1134C3090619093470507C081E080934502FFBED1
S1134C4081E090E007C0809147058093BC00FFBEDF
S1134C5080E090E01F910F91FF90EF90DF90089516
S1134C600F931F932FB7F89433278091A402809356
S1134C701B0283E0809344022FBF20911B028FB755
S1134C80F894992720931C028FBF213091F0213092
S1134C9030F02230D1F0233009F046C032C04091C8
S1134CA0CF0A5091D00A0DED12E021E063E080E0DC
S1134CB009C040914D0250914E0205ED1AE021E0E9
S1134CC063E081E00E947D252FC00DE112E021E028
S1134CD049E350E067E082E00E947D25882321F1CA
S1134CE01092470281E00E94BA150E949D0382E05F
S1134CF00E94FE150E947F038823B1F00E943F1595
S1134D0013C00EEB12E021E049E350E067E083E0DA
S1134D100E947D25882341F00E949D0383E00E9428
S1134D20FE1580E20E94B6011F910F9108957F92B3
S1134D308F929F92AF92BF92CF92DF92EF92FF92A7
S1134D400F931F93CF93DF93E82FFF27E632F105EC
S1134D5010F00C94142FEA59FF4FEE0FFF1F05902B
S1134D60F491E02D09948FB7F894282F3327422F1C
S1134D709091650280915505981741F48091D40271
S1134D80882321F410922F090C94132F4FBFE09124
S1134D905505FF27EE0FFF1FE355FD4F00811181DD
S1134DA0F80180818D50C82FDD27AC2EC0931204EA
S1134DB08384C8010E9489096C01C8010E94890A80
S1134DC07C01C8010E94B3090B5F1F4F97E0F801F3
S1134DD011929A95E9F705501040F801E086EF2CFE
S1134DE0FF24E7828287E0915505FF27EE0FFF1F1E
S1134DF0E355FD4F0190F081E02D22E72C1708F4D4
S1134E00C2C6C6828D2D992785838386C1878091EA
S1134E102F0290913002892B09F0B5C62FB7F89470
S1134E20332785E08093320210923302F0932E02EE
S1134E30E0932D0282E090E09093300280932F0261
S1134E4010923502109234024CE0A40EA09231026A
S1134E502FBF8FB7F894282F332780914F058A30BE
S1134E6011F42FBF1EC02FBF9FB7F8948091E702A3
S1134E70882311F020E006C081E08093E7021092BD
S1134E80E80221E0892F99278FBF222351F00E9445
S1134E9009058FB7F894992722B132E0232722B964
S1134EA01AC61092300210922F026DC68FB7F89472
S1134EB0282F3327422F909150028091EC0A9817A3
S1134EC041F480916402882321F4109257020C94D7
S1134ED0132F4FBFE091EC0AFF27EE0FFF1FE9509D
S1134EE0FC4F00811181F8018184C580A680E78090
S1134EF08085FF24FE2CEE249927E82AF92A73845E
S1134F00C8010E9451070E571F4FF8011082025822
S1134F101040F801E086EF2CFF24E1869924DD247B
S1134F20DC2CCC24BB24CA28DB28282DA801B601FC
S1134F30872D0E948017882321F40E94AA090C94CB
S1134F40142F0E9499040E94E2010C94142F809162
S1134F508C08882309F4F6C00E94CA16882309F431
S1134F60F1C08FB7F8949927C091D802D091D90293
S1134F708FBF10928C0828988FE88EBD0DB407FE61
S1134F80FDCF8EB51EBC0DB407FEFDCF8EB5289A9D
S1134F90982F80914F02833011F0873031F485E0EF
S1134FA08093CE0A88E080934F02C92EDD24C2FE8E
S1134FB064C080914F02863019F410924F0203C0EE
S1134FC0882309F05AC0943009F042C0289886E832
S1134FD08EBD0DB407FEFDCF8EB51EBC0DB407FE0D
S1134FE0FDCFFEB4289AFFE1FF228091B402982FEE
S1134FF0969596952F2D291B820F8093B4020091CC
S11350006A0210916B02F801EE57FF4F80818B7F8B
S11350108083B80183E00E94EB090D571F4FF8010C
S1135020F1820E94140ADC01CB01C81BD90B27971B
S1135030AE01662757FD6095762F480F591F6A1FEA
S11350407B1F80916A0290916B020E94F90912C041
S1135050E0916A02F0916B02EE57FF4F8081877FE7
S11350608083E0916A02F0916B02EE57FF4F8081DA
S11350708D7F808385E080934F02C3FE63C080915F
S11350804F02843009F041C085E08093CE0A10922B
S11350904F0280917502833019F41092750252C048
S11350A00091DC0A1091DD0AC8010E94390A8823A4
S11350B021F1C8010E943D078823F9F0C8010E942C
S11350C089098F5F9F4FC9F090E08091480588233C
S11350D009F491E0992389F012E01093E40281E04D
S11350E080934805809184009091850069E973E07C
S11350F00E943C091093750225C01092750210920B
S1135100BA0280E00E9455171DC08530D9F4209161
S1135110D502289886E88EBD0DB407FEFDCF8EB566
S11351201EBC0DB407FEFDCF8EB5289A8F71922F49
S113513096959695891B280F2093D50289E0809334
S11351404F0208C090914F02992309F4D9C29930B3
S113515009F006C2289880E28EBD0DB407FEFDCF8B
S11351608EB51EBC0DB407FEFDCF8EB5482F552756
S1135170433008F451C6842F9927803891050CF0E8
S11351804BC61EBCE0916A02F0916B024083042F6F
S11351900250073010F4102F01C017E09F012F5F59
S11351A03F4F912FF901EE24FF240DB407FEFDCFEC
S11351B08EB51EBC80838191A7014827042E429599
S11351C0407F4025052E542F42954F700426469566
S11351D054274527440F440F440F40257A0191502A
S11351E021F71150E901C10FD11D1F5F2196809154
S11351F06A0290916B020E944A0A882349F020E0D7
S113520030E080917502823081F421E030E00DC0FD
S11352108FB7F894282F332790E08091F0068330DD
S113522008F491E02FBF292F3327232B09F461C001
S1135230902F911B1AC00DB407FEFDCF8EB51EBC76
S113524088838991F701E8270E2EE295E07FE02517
S11352500F2EFE2FE295EF700E26E695FE27EF2720
S1135260EE0FEE0FEE0FE0257F01915020F70DB405
S113527007FEFDCF8EB51EBC97012827022E22956E
S1135280207F2025032E322F22952F70022626956B
S113529032272327220F220F220F20250DB407FEC9
S11352A0FDCF8EB51EBC2827022E2295207F2025F7
S11352B0032E322F22952F7002262695322723277C
S11352C0220F220F220F20250DB407FEFDCF8EB52D
S11352D0E0916A02F0916B02ED57FF4F8083289AA8
S11352E015E01093CE0A10924F02232B09F004C24A
S11352F005C00DB407FEFDCF8EB58EC5C0916A0200
S1135300D0916B02CE010E944A0A909175028823C3
S113531021F1923009F01FC19B81E091DC0AF091E8
S1135320DD0A8381981709F016C18981877082305C
S113533009F011C180916F008D7F80936F001092EE
S11353404805BF0180E00E94EB091092750210929B
S1135350BA0280E00E945517FEC09923C1F4CE0121
S11353600E94550A882399F01093700382E0809379
S11353707103109272038B818093730380E793E02F
S11353800E943219882319F483E0809375020091F6
S1135390840010918500CE010E94550A882311F0E3
S11353A0045E1C4F1093080400930704809184004A
S11353B0909185009801281B390B12161306A4F44A
S11353C08091BA02882369F490E08091480588238B
S11353D009F491E0992341F0C9010E94DF1480E8A7
S11353E001C080688093BA02CE010E94890AAC0190
S11353F080917C02282F3327F901EE0FFF1FEF560F
S1135400F74F8081918100914B058417950749F4EA
S1135410F901EA52F54F8081801709F468C0802FA2
S11354201BC0EE24FF2480E090E0A1E9B8E0E6EDA3
S1135430FAE0BF01182F9C018D919C91119784175C
S1135440950789F420937C0290914B05FB018081A0
S1135450891709F44CC0892F8F5F80934B05808393
S113546080E8E82E2AC08081902F981BE91610F45A
S1135470E92EF22E1F5FC90101966F5F7F4F1296CE
S1135480319685309105B1F61530B9F4F0927C026D
S1135490AF2DBB27FD01EE0FFF1FEF56F74F5183D2
S11354A0408380914B058F5F80934B05FD01EA5249
S11354B0F54F8083A951B54F1C9290914B05892FCC
S11354C08F778F3781F4EEE7EE1568F4E6EDFAE0B6
S11354D0292F207880818F678913208331963AE0C1
S11354E0EB3DF307B9F780917C02282F33279B818A
S11354F0A22FBB27FD01E951F54F808180FF07C032
S1135500FD01EF50F94F8081981729F102C08160A5
S11355108083AF50B94F9C93FFB6F8948091F00606
S11355208330B0F4E0912D09E80FE33008F0E35044
S1135530FF27EE0FFF1FE25AFD4F00811181D18337
S1135540C0838F5F8093F00686E00E94B601E80175
S11355508F2D99278FBFD0936B02C0936A02C3C06B
S1135560892F8150833008F09CC081508230E0F450
S11355703091CE0A3130C1F420E08091480588236F
S113558009F421E0222381F02F9883E08093E40240
S11355903093480580918400909185006BE273E01C
S11355A00E943C0982E068C0933009F042C08091B7
S11355B0CE0A833009F0A0C00E94CA168823C9F11C
S11355C028988FE88EBD0DB407FEFDCF8EB51EBCA6
S11355D00DB407FEFDCF8EB5289A809181008064BA
S11355E08093810080E286BB80916F00806280930B
S11355F06F009091A902289888EC8EBD0DB407FE27
S1135600FDCF8EB590669EBD0DB407FEFDCF8EB561
S1135610289A289882EC8EBD0DB407FEFDCF8EB576
S113562086E08EBD0DB407FEFDCF8EB5289A84E0CA
S113563023C080914F028150823000F58091CE0AC0
S11356408530E1F40E94CA168823C1F0289882ECC0
S11356508EBD0DB407FEFDCF8EB583E08EBD0DB4B7
S113566007FEFDCF8EB5289A80916F008F7D8093C1
S11356706F0010928C0883E08093CE0A90914F02C1
S1135680913041F48091CE0A8330B1F52F9A9093F2
S1135690CE0A25C0923039F58091CE0A833061F567
S11356A01EC0973001F50E94CA168823E1F090913C
S11356B0A902289888EC8EBD0DB407FEFDCF8EB5E7
S11356C090669EBD0DB407FEFDCF8EB5289A8091DD
S11356D0CE0A853021F484E08093CE0A04C088E0A9
S11356E080934F0204C080914F02883029F41092B5
S11356F04F0284E00E94B60180914F02882309F58D
S11357008091CE0A8530D1F480918C088823B1F43D
S113571080917502882391F48091BA02882371F4F0
S113572090E080914805882309F491E0992331F0B1
S11357300E94930A80914F02882319F48AE00E9400
S1135740B60180914805823009F06EC31092480575
S1135750F090E40242E0F41609F469C053E0F5164F
S113576009F46DC081E0F81609F05EC320910704C6
S11357703091080480918400909185004091BA0290
S1135780403829F41092BA020E94930A4DC3890149
S1135790081B190B47FF03C01016110604F1C09132
S11357A0B502D091B602809175028823C1F4CE016E
S11357B00E9432199927882369F4FE01EE57FF4F9E
S11357C080818E7F8083F0927502D093DD0AC0932E
S11357D0DC0A29C09927F82E882329F102C0B5E0F4
S11357E0FB2E2091BA02822F99278F77019759F4C3
S11357F0207822602093BA0280E198E00E94660932
S11358000E94DF1411C327FF0AC0101611063CF4CE
S113581080E88093BA02C8010E94DF1402C010928B
S1135820BA028F2D09C083E08093BA02FDC21092A0
S113583075021092BA0280E00E945517F5C2809159
S1135840CE0A823019F4F092CE0A13C080914F022E
S1135850863079F410924F02289881E88EBD0DB4F9
S113586007FEFDCF8EB51EBC0DB407FEFDCF8EB571
S1135870289A0E94DD01D8C22FB7F894332780916B
S1135880AA028093070282E0809328022FBF8091AE
S11358900702882309F0C8C28091AB029091AC0240
S11358A00E946217C82FDD27CC2309F4BDC20E94D1
S11358B0B5156C2F8091AB029091AC0252C08091CF
S11358C0B9021092B902853019F410926402ACC284
S11358D0863009F4A9C2873009F4A6C22AC04091CF
S11358E0B902413071F580914C058F5F80934C056E
S11358F0863038F520915005309151058091BA02D7
S11359008823D1F490E080914805882309F491E03C
S1135910992391F03093B6022093B5024093BA02D2
S11359208BED91E10E9466090E94DF1410923C09FC
S113593083E08093B90278C285E080933C0982E0D9
S1135940F8CF1092B90210913C09C0915005D09142
S113595051058A858F3309F067C20E94B515612FFE
S1135960CE010E94081960C28FB7F894282F3327FC
S11359708091F006882309F456C2E0912D09FF278F
S1135980EE0FFF1FE25AFD4FC081D1812FBF8A85E0
S11359908F3399F4ECE0EE2EF12CEC0EFD1E888191
S11359A08D50082F1127CE010E949309402FB70173
S11359B0CE010E940A1CEC0119C0CE010E94890983
S11359C0AC018FB7F8949927209102023091030219
S11359D08FBF4217530719F04F5F5F4F39F4CE0161
S11359E00E94B3098FB7F89499278FBF9FB7F89493
S11359F080912D09E82FFF27EE0FFF1FE25AFD4F7C
S1135A00D183C0838F5F80932D09833010F010926F
S1135A102D098091F00681508093F006892F9927F3
S1135A208FBFA2CF0E94B3082FB7F8943327709387
S1135A30590560935805F7C18091A602882361F542
S1135A4020919E0830919F084091A0085091A10890
S1135A50EFB7F894FF276091660270916702809116
S1135A60680290916902E0903709F090380900913A
S1135A70390910913A096E0D7F1D801F911FEFBFE8
S1135A8020939E0830939F084093A0085093A10848
S1135A901092A6020E9499080E9437030E94CD1E0C
S1135AA0C3C10E941523C0C180E00E940E06BCC180
S1135AB08FB7F894992710924405109243051092D9
S1135AC0CD0A1092CC0A10925202109251021092F6
S1135AD00604109205048FBFA7C10E94DE1AA4C158
S1135AE00E941D05A1C18091C1008F7B8093C100DC
S1135AF08091C1008F778093C10010924D05109260
S1135B00C3028091C10088608093C1008091C1006C
S1135B1080618093C1008091C10080688093C1003E
S1135B208FB7F894992710924F051092BC028FBF3B
S1135B301092D40279C180E10E94B60175C18091AE
S1135B40C100877F8093C1008091C1008F7E8093C4
S1135B50C1006AC11092300210922F028FB7F894DC
S1135B609927209133028FBF80913402811123E061
S1135B7040912D0250912E0280913502882309F024
S1135B8053C1222319F00E94990420C03FB7F8940E
S1135B9020915505E22FFF27EE0FFF1FE355FD4F20
S1135BA0808191814817590771F4822F8F5F809308
S1135BB05505833010F0109255058091D402882346
S1135BC011F01092D402832F99278FBF80E0B4CFB5
S1135BD00E940F1829C180913C02882309F424C132
S1135BE080912F048D7F80932F040E947E04082FC0
S1135BF00E947E041127102F00279927082B192BA8
S1135C000E947E040E94940480915802909159024B
S1135C108330910521F0059709F006C116C0109252
S1135C203C028091D40A882309F0FEC00E943A15F0
S1135C30809156059091570590935B0280935A0288
S1135C401093570500935605EFC010923C028091C3
S1135C50D40A813009F0E8C00E94351580915B05B3
S1135C6090915C05909346058093450510935C05DF
S1135C7000935B05D9C080915802909159028630F7
S1135C80910531F0079709F0CFC010923C02CCC0C7
S1135C9010923C0210923E02C7C00E94371DC4C03D
S1135CA081E001C082E080933F0280E0B2C00E94A4
S1135CB07C23BAC00E946D1EB7C00E943E1EB4C0B1
S1135CC00E943026B1C08091BD02882309F4ACC083
S1135CD01092BD0280914B028823C1F010924B02B6
S1135CE04091F6062091D50A3327842F99270197EE
